{
  "_format": "hh-sol-artifact-1",
  "contractName": "AccessControl",
  "sourceName": "contracts/AccessControl.sol",
  "abi": [
    {
      "inputs": [],
      "stateMutability": "nonpayable",
      "type": "constructor"
    },
    {
      "anonymous": false,
      "inputs": [
        {
          "indexed": true,
          "internalType": "bytes32",
          "name": "role",
          "type": "bytes32"
        },
        {
          "indexed": true,
          "internalType": "address",
          "name": "account",
          "type": "address"
        }
      ],
      "name": "GrantRoles",
      "type": "event"
    },
    {
      "anonymous": false,
      "inputs": [
        {
          "indexed": true,
          "internalType": "bytes32",
          "name": "role",
          "type": "bytes32"
        },
        {
          "indexed": true,
          "internalType": "address",
          "name": "account",
          "type": "address"
        }
      ],
      "name": "RemoveRoles",
      "type": "event"
    },
    {
      "inputs": [],
      "name": "Board",
      "outputs": [
        {
          "internalType": "bytes32",
          "name": "",
          "type": "bytes32"
        }
      ],
      "stateMutability": "view",
      "type": "function"
    },
    {
      "inputs": [],
      "name": "Chairman",
      "outputs": [
        {
          "internalType": "bytes32",
          "name": "",
          "type": "bytes32"
        }
      ],
      "stateMutability": "view",
      "type": "function"
    },
    {
      "inputs": [],
      "name": "Students",
      "outputs": [
        {
          "internalType": "bytes32",
          "name": "",
          "type": "bytes32"
        }
      ],
      "stateMutability": "view",
      "type": "function"
    },
    {
      "inputs": [],
      "name": "Teachers",
      "outputs": [
        {
          "internalType": "bytes32",
          "name": "",
          "type": "bytes32"
        }
      ],
      "stateMutability": "view",
      "type": "function"
    },
    {
      "inputs": [
        {
          "internalType": "bytes32",
          "name": "_role",
          "type": "bytes32"
        },
        {
          "internalType": "address",
          "name": "_account",
          "type": "address"
        }
      ],
      "name": "grantRole",
      "outputs": [],
      "stateMutability": "nonpayable",
      "type": "function"
    },
    {
      "inputs": [
        {
          "internalType": "address",
          "name": "_address",
          "type": "address"
        }
      ],
      "name": "isAdminSH",
      "outputs": [
        {
          "internalType": "bool",
          "name": "",
          "type": "bool"
        }
      ],
      "stateMutability": "view",
      "type": "function"
    },
    {
      "inputs": [
        {
          "internalType": "address",
          "name": "_address",
          "type": "address"
        }
      ],
      "name": "isBoard",
      "outputs": [
        {
          "internalType": "bool",
          "name": "",
          "type": "bool"
        }
      ],
      "stateMutability": "view",
      "type": "function"
    },
    {
      "inputs": [
        {
          "internalType": "address",
          "name": "_address",
          "type": "address"
        }
      ],
      "name": "isChairman",
      "outputs": [
        {
          "internalType": "bool",
          "name": "",
          "type": "bool"
        }
      ],
      "stateMutability": "view",
      "type": "function"
    },
    {
      "inputs": [
        {
          "internalType": "address",
          "name": "_address",
          "type": "address"
        }
      ],
      "name": "isStudent",
      "outputs": [
        {
          "internalType": "bool",
          "name": "",
          "type": "bool"
        }
      ],
      "stateMutability": "view",
      "type": "function"
    },
    {
      "inputs": [
        {
          "internalType": "address",
          "name": "_address",
          "type": "address"
        }
      ],
      "name": "isTeacher",
      "outputs": [
        {
          "internalType": "bool",
          "name": "",
          "type": "bool"
        }
      ],
      "stateMutability": "view",
      "type": "function"
    },
    {
      "inputs": [
        {
          "internalType": "bytes32",
          "name": "_role",
          "type": "bytes32"
        },
        {
          "internalType": "address",
          "name": "_account",
          "type": "address"
        }
      ],
      "name": "removeRole",
      "outputs": [],
      "stateMutability": "nonpayable",
      "type": "function"
    },
    {
      "inputs": [
        {
          "internalType": "bytes32",
          "name": "",
          "type": "bytes32"
        },
        {
          "internalType": "address",
          "name": "",
          "type": "address"
        }
      ],
      "name": "roles",
      "outputs": [
        {
          "internalType": "bool",
          "name": "",
          "type": "bool"
        }
      ],
      "stateMutability": "view",
      "type": "function"
    }
  ],
  "bytecode": "0x608060405234801561001057600080fd5b506100417f76dfba581cd3b5e02cf3469ec59636d3b2bc677066188c2346f32f81a15971003361004660201b60201c565b6100f6565b600160008084815260200190815260200160002060008373ffffffffffffffffffffffffffffffffffffffff1673ffffffffffffffffffffffffffffffffffffffff16815260200190815260200160002060006101000a81548160ff0219169083151502179055508073ffffffffffffffffffffffffffffffffffffffff16827f28be2ad647d19c04889746a89a2c95468f8dcd453018d6d0f2411904e90dff1360405160405180910390a35050565b610be4806101056000396000f3fe608060405234801561001057600080fd5b50600436106100b45760003560e01c806382f7d3921161007157806382f7d392146101a15780639ca0f714146101d15780639f7dcd0f146101ef578063aec37eb31461020d578063f6ba00071461023d578063f8fc08b914610259576100b4565b8063051e0dcb146100b95780630aab6cf6146100e95780632f2ff15d146101195780633828725914610135578063509cd3601461016557806374a162bd14610183575b600080fd5b6100d360048036038101906100ce9190610a02565b610289565b6040516100e09190610aa8565b60405180910390f35b61010360048036038101906100fe9190610a02565b610417565b6040516101109190610aa8565b60405180910390f35b610133600480360381019061012e9190610a2b565b61049d565b005b61014f600480360381019061014a9190610a02565b610569565b60405161015c9190610aa8565b60405180910390f35b61016d6105ef565b60405161017a9190610ac3565b60405180910390f35b61018b610613565b6040516101989190610ac3565b60405180910390f35b6101bb60048036038101906101b69190610a02565b610637565b6040516101c89190610aa8565b60405180910390f35b6101d96106bd565b6040516101e69190610ac3565b60405180910390f35b6101f76106e1565b6040516102049190610ac3565b60405180910390f35b61022760048036038101906102229190610a02565b610705565b6040516102349190610aa8565b60405180910390f35b61025760048036038101906102529190610a2b565b61078b565b005b610273600480360381019061026e9190610a2b565b6108f9565b6040516102809190610aa8565b60405180910390f35b60008060007f76dfba581cd3b5e02cf3469ec59636d3b2bc677066188c2346f32f81a1597100815260200190815260200160002060008373ffffffffffffffffffffffffffffffffffffffff1673ffffffffffffffffffffffffffffffffffffffff16815260200190815260200160002060009054906101000a900460ff168061038c57506000807f440f0b4326c1ea763c9f96608623635c8105d5cc0e4b4f20a4e4fe0546b15eeb815260200190815260200160002060008373ffffffffffffffffffffffffffffffffffffffff1673ffffffffffffffffffffffffffffffffffffffff16815260200190815260200160002060009054906101000a900460ff165b8061041057506000807f24428a7c8016b6f2b3148e1c17f4bed00ad0f5ab53b599683050e4e0aced359b815260200190815260200160002060008373ffffffffffffffffffffffffffffffffffffffff1673ffffffffffffffffffffffffffffffffffffffff16815260200190815260200160002060009054906101000a900460ff165b9050919050565b60008060007f440f0b4326c1ea763c9f96608623635c8105d5cc0e4b4f20a4e4fe0546b15eeb815260200190815260200160002060008373ffffffffffffffffffffffffffffffffffffffff1673ffffffffffffffffffffffffffffffffffffffff16815260200190815260200160002060009054906101000a900460ff169050919050565b7f76dfba581cd3b5e02cf3469ec59636d3b2bc677066188c2346f32f81a159710060008082815260200190815260200160002060003373ffffffffffffffffffffffffffffffffffffffff1673ffffffffffffffffffffffffffffffffffffffff16815260200190815260200160002060009054906101000a900460ff1661055a576040517f08c379a000000000000000000000000000000000000000000000000000000000815260040161055190610ade565b60405180910390fd5b6105648383610928565b505050565b60008060007f76dfba581cd3b5e02cf3469ec59636d3b2bc677066188c2346f32f81a1597100815260200190815260200160002060008373ffffffffffffffffffffffffffffffffffffffff1673ffffffffffffffffffffffffffffffffffffffff16815260200190815260200160002060009054906101000a900460ff169050919050565b7f440f0b4326c1ea763c9f96608623635c8105d5cc0e4b4f20a4e4fe0546b15eeb81565b7f24428a7c8016b6f2b3148e1c17f4bed00ad0f5ab53b599683050e4e0aced359b81565b60008060007f6d7942b32c5633723435ccc7414ccb4e054f91ce4a595460bedf2f56bb0f5a5a815260200190815260200160002060008373ffffffffffffffffffffffffffffffffffffffff1673ffffffffffffffffffffffffffffffffffffffff16815260200190815260200160002060009054906101000a900460ff169050919050565b7f6d7942b32c5633723435ccc7414ccb4e054f91ce4a595460bedf2f56bb0f5a5a81565b7f76dfba581cd3b5e02cf3469ec59636d3b2bc677066188c2346f32f81a159710081565b60008060007f24428a7c8016b6f2b3148e1c17f4bed00ad0f5ab53b599683050e4e0aced359b815260200190815260200160002060008373ffffffffffffffffffffffffffffffffffffffff1673ffffffffffffffffffffffffffffffffffffffff16815260200190815260200160002060009054906101000a900460ff169050919050565b7f76dfba581cd3b5e02cf3469ec59636d3b2bc677066188c2346f32f81a159710060008082815260200190815260200160002060003373ffffffffffffffffffffffffffffffffffffffff1673ffffffffffffffffffffffffffffffffffffffff16815260200190815260200160002060009054906101000a900460ff16610848576040517f08c379a000000000000000000000000000000000000000000000000000000000815260040161083f90610ade565b60405180910390fd5b600080600085815260200190815260200160002060008473ffffffffffffffffffffffffffffffffffffffff1673ffffffffffffffffffffffffffffffffffffffff16815260200190815260200160002060006101000a81548160ff0219169083151502179055508173ffffffffffffffffffffffffffffffffffffffff16837f69331970bf0fcdf0e1bcab5a5b121dddcd366a05701b071791a387a80fc918f460405160405180910390a3505050565b60006020528160005260406000206020528060005260406000206000915091509054906101000a900460ff1681565b600160008084815260200190815260200160002060008373ffffffffffffffffffffffffffffffffffffffff1673ffffffffffffffffffffffffffffffffffffffff16815260200190815260200160002060006101000a81548160ff0219169083151502179055508073ffffffffffffffffffffffffffffffffffffffff16827f28be2ad647d19c04889746a89a2c95468f8dcd453018d6d0f2411904e90dff1360405160405180910390a35050565b6000813590506109e781610b80565b92915050565b6000813590506109fc81610b97565b92915050565b600060208284031215610a1457600080fd5b6000610a22848285016109d8565b91505092915050565b60008060408385031215610a3e57600080fd5b6000610a4c858286016109ed565b9250506020610a5d858286016109d8565b9150509250929050565b610a7081610b21565b82525050565b610a7f81610b2d565b82525050565b6000610a92600e83610afe565b9150610a9d82610b57565b602082019050919050565b6000602082019050610abd6000830184610a67565b92915050565b6000602082019050610ad86000830184610a76565b92915050565b60006020820190508181036000830152610af781610a85565b9050919050565b600082825260208201905092915050565b6000610b1a82610b37565b9050919050565b60008115159050919050565b6000819050919050565b600073ffffffffffffffffffffffffffffffffffffffff82169050919050565b7f6e6f7420617574686f72697a6564000000000000000000000000000000000000600082015250565b610b8981610b0f565b8114610b9457600080fd5b50565b610ba081610b2d565b8114610bab57600080fd5b5056fea26469706673582212207b1391b25af5be25de94985ed3fefc7e31fc161221ff44c1d2b2271256d2359464736f6c63430008040033",
  "linkReferences": {},
  "deployedLinkReferences": {}
}