{
  "_format": "hh-sol-artifact-1",
  "contractName": "AccessControl",
  "sourceName": "contracts/AccessControl.sol",
  "abi": [
    {
      "inputs": [],
      "stateMutability": "nonpayable",
      "type": "constructor"
    },
    {
      "anonymous": false,
      "inputs": [
        {
          "indexed": true,
          "internalType": "bytes32",
          "name": "role",
          "type": "bytes32"
        },
        {
          "indexed": true,
          "internalType": "address",
          "name": "account",
          "type": "address"
        }
      ],
      "name": "GrantRoles",
      "type": "event"
    },
    {
      "anonymous": false,
      "inputs": [
        {
          "indexed": true,
          "internalType": "bytes32",
          "name": "role",
          "type": "bytes32"
        },
        {
          "indexed": true,
          "internalType": "address",
          "name": "account",
          "type": "address"
        }
      ],
      "name": "RemoveRoles",
      "type": "event"
    },
    {
      "inputs": [],
      "name": "Board",
      "outputs": [
        {
          "internalType": "bytes32",
          "name": "",
          "type": "bytes32"
        }
      ],
      "stateMutability": "view",
      "type": "function"
    },
    {
      "inputs": [],
      "name": "Chairman",
      "outputs": [
        {
          "internalType": "bytes32",
          "name": "",
          "type": "bytes32"
        }
      ],
      "stateMutability": "view",
      "type": "function"
    },
    {
      "inputs": [],
      "name": "Students",
      "outputs": [
        {
          "internalType": "bytes32",
          "name": "",
          "type": "bytes32"
        }
      ],
      "stateMutability": "view",
      "type": "function"
    },
    {
      "inputs": [],
      "name": "Teachers",
      "outputs": [
        {
          "internalType": "bytes32",
          "name": "",
          "type": "bytes32"
        }
      ],
      "stateMutability": "view",
      "type": "function"
    },
    {
      "inputs": [
        {
          "internalType": "address",
          "name": "_address",
          "type": "address"
        }
      ],
      "name": "getUserRole",
      "outputs": [
        {
          "internalType": "string",
          "name": "",
          "type": "string"
        }
      ],
      "stateMutability": "view",
      "type": "function"
    },
    {
      "inputs": [
        {
          "internalType": "bytes32",
          "name": "_role",
          "type": "bytes32"
        },
        {
          "internalType": "address",
          "name": "_account",
          "type": "address"
        }
      ],
      "name": "grantRole",
      "outputs": [],
      "stateMutability": "nonpayable",
      "type": "function"
    },
    {
      "inputs": [
        {
          "internalType": "address",
          "name": "_address",
          "type": "address"
        }
      ],
      "name": "isBoard",
      "outputs": [
        {
          "internalType": "bool",
          "name": "",
          "type": "bool"
        }
      ],
      "stateMutability": "view",
      "type": "function"
    },
    {
      "inputs": [
        {
          "internalType": "address",
          "name": "_address",
          "type": "address"
        }
      ],
      "name": "isChairman",
      "outputs": [
        {
          "internalType": "bool",
          "name": "",
          "type": "bool"
        }
      ],
      "stateMutability": "view",
      "type": "function"
    },
    {
      "inputs": [
        {
          "internalType": "address",
          "name": "_address",
          "type": "address"
        }
      ],
      "name": "isStudent",
      "outputs": [
        {
          "internalType": "bool",
          "name": "",
          "type": "bool"
        }
      ],
      "stateMutability": "view",
      "type": "function"
    },
    {
      "inputs": [
        {
          "internalType": "address",
          "name": "_address",
          "type": "address"
        }
      ],
      "name": "isTeacher",
      "outputs": [
        {
          "internalType": "bool",
          "name": "",
          "type": "bool"
        }
      ],
      "stateMutability": "view",
      "type": "function"
    },
    {
      "inputs": [
        {
          "internalType": "bytes32",
          "name": "_role",
          "type": "bytes32"
        },
        {
          "internalType": "address",
          "name": "_account",
          "type": "address"
        }
      ],
      "name": "removeRole",
      "outputs": [],
      "stateMutability": "nonpayable",
      "type": "function"
    },
    {
      "inputs": [
        {
          "internalType": "bytes32",
          "name": "",
          "type": "bytes32"
        },
        {
          "internalType": "address",
          "name": "",
          "type": "address"
        }
      ],
      "name": "roles",
      "outputs": [
        {
          "internalType": "bool",
          "name": "",
          "type": "bool"
        }
      ],
      "stateMutability": "view",
      "type": "function"
    }
  ],
  "bytecode": "0x608060405234801561001057600080fd5b506100417f76dfba581cd3b5e02cf3469ec59636d3b2bc677066188c2346f32f81a15971003361004660201b60201c565b6100f6565b600160008084815260200190815260200160002060008373ffffffffffffffffffffffffffffffffffffffff1673ffffffffffffffffffffffffffffffffffffffff16815260200190815260200160002060006101000a81548160ff0219169083151502179055508073ffffffffffffffffffffffffffffffffffffffff16827f28be2ad647d19c04889746a89a2c95468f8dcd453018d6d0f2411904e90dff1360405160405180910390a35050565b610e3c806101056000396000f3fe608060405234801561001057600080fd5b50600436106100b45760003560e01c806382f7d3921161007157806382f7d392146101a15780639ca0f714146101d15780639f7dcd0f146101ef578063aec37eb31461020d578063f6ba00071461023d578063f8fc08b914610259576100b4565b80630aab6cf6146100b957806327820851146100e95780632f2ff15d146101195780633828725914610135578063509cd3601461016557806374a162bd14610183575b600080fd5b6100d360048036038101906100ce9190610bb0565b610289565b6040516100e09190610c8f565b60405180910390f35b61010360048036038101906100fe9190610bb0565b61030f565b6040516101109190610cc5565b60405180910390f35b610133600480360381019061012e9190610bd9565b61064b565b005b61014f600480360381019061014a9190610bb0565b610717565b60405161015c9190610c8f565b60405180910390f35b61016d61079d565b60405161017a9190610caa565b60405180910390f35b61018b6107c1565b6040516101989190610caa565b60405180910390f35b6101bb60048036038101906101b69190610bb0565b6107e5565b6040516101c89190610c8f565b60405180910390f35b6101d961086b565b6040516101e69190610caa565b60405180910390f35b6101f761088f565b6040516102049190610caa565b60405180910390f35b61022760048036038101906102229190610bb0565b6108b3565b6040516102349190610c8f565b60405180910390f35b61025760048036038101906102529190610bd9565b610939565b005b610273600480360381019061026e9190610bd9565b610aa7565b6040516102809190610c8f565b60405180910390f35b60008060007f440f0b4326c1ea763c9f96608623635c8105d5cc0e4b4f20a4e4fe0546b15eeb815260200190815260200160002060008373ffffffffffffffffffffffffffffffffffffffff1673ffffffffffffffffffffffffffffffffffffffff16815260200190815260200160002060009054906101000a900460ff169050919050565b60606000807f76dfba581cd3b5e02cf3469ec59636d3b2bc677066188c2346f32f81a1597100815260200190815260200160002060008373ffffffffffffffffffffffffffffffffffffffff1673ffffffffffffffffffffffffffffffffffffffff16815260200190815260200160002060009054906101000a900460ff16156103d0576040518060400160405280600881526020017f43686169726d616e0000000000000000000000000000000000000000000000008152509050610646565b6000807f440f0b4326c1ea763c9f96608623635c8105d5cc0e4b4f20a4e4fe0546b15eeb815260200190815260200160002060008373ffffffffffffffffffffffffffffffffffffffff1673ffffffffffffffffffffffffffffffffffffffff16815260200190815260200160002060009054906101000a900460ff161561048f576040518060400160405280600581526020017f426f6172640000000000000000000000000000000000000000000000000000008152509050610646565b6000807f24428a7c8016b6f2b3148e1c17f4bed00ad0f5ab53b599683050e4e0aced359b815260200190815260200160002060008373ffffffffffffffffffffffffffffffffffffffff1673ffffffffffffffffffffffffffffffffffffffff16815260200190815260200160002060009054906101000a900460ff161561054e576040518060400160405280600881526020017f54656163686572730000000000000000000000000000000000000000000000008152509050610646565b6000807f6d7942b32c5633723435ccc7414ccb4e054f91ce4a595460bedf2f56bb0f5a5a815260200190815260200160002060008373ffffffffffffffffffffffffffffffffffffffff1673ffffffffffffffffffffffffffffffffffffffff16815260200190815260200160002060009054906101000a900460ff161561060d576040518060400160405280600881526020017f53747564656e74730000000000000000000000000000000000000000000000008152509050610646565b6040518060400160405280600e81526020017f6e6f74207265676973746572656400000000000000000000000000000000000081525090505b919050565b7f76dfba581cd3b5e02cf3469ec59636d3b2bc677066188c2346f32f81a159710060008082815260200190815260200160002060003373ffffffffffffffffffffffffffffffffffffffff1673ffffffffffffffffffffffffffffffffffffffff16815260200190815260200160002060009054906101000a900460ff16610708576040517f08c379a00000000000000000000000000000000000000000000000000000000081526004016106ff90610ce7565b60405180910390fd5b6107128383610ad6565b505050565b60008060007f76dfba581cd3b5e02cf3469ec59636d3b2bc677066188c2346f32f81a1597100815260200190815260200160002060008373ffffffffffffffffffffffffffffffffffffffff1673ffffffffffffffffffffffffffffffffffffffff16815260200190815260200160002060009054906101000a900460ff169050919050565b7f440f0b4326c1ea763c9f96608623635c8105d5cc0e4b4f20a4e4fe0546b15eeb81565b7f24428a7c8016b6f2b3148e1c17f4bed00ad0f5ab53b599683050e4e0aced359b81565b60008060007f6d7942b32c5633723435ccc7414ccb4e054f91ce4a595460bedf2f56bb0f5a5a815260200190815260200160002060008373ffffffffffffffffffffffffffffffffffffffff1673ffffffffffffffffffffffffffffffffffffffff16815260200190815260200160002060009054906101000a900460ff169050919050565b7f6d7942b32c5633723435ccc7414ccb4e054f91ce4a595460bedf2f56bb0f5a5a81565b7f76dfba581cd3b5e02cf3469ec59636d3b2bc677066188c2346f32f81a159710081565b60008060007f24428a7c8016b6f2b3148e1c17f4bed00ad0f5ab53b599683050e4e0aced359b815260200190815260200160002060008373ffffffffffffffffffffffffffffffffffffffff1673ffffffffffffffffffffffffffffffffffffffff16815260200190815260200160002060009054906101000a900460ff169050919050565b7f76dfba581cd3b5e02cf3469ec59636d3b2bc677066188c2346f32f81a159710060008082815260200190815260200160002060003373ffffffffffffffffffffffffffffffffffffffff1673ffffffffffffffffffffffffffffffffffffffff16815260200190815260200160002060009054906101000a900460ff166109f6576040517f08c379a00000000000000000000000000000000000000000000000000000000081526004016109ed90610ce7565b60405180910390fd5b600080600085815260200190815260200160002060008473ffffffffffffffffffffffffffffffffffffffff1673ffffffffffffffffffffffffffffffffffffffff16815260200190815260200160002060006101000a81548160ff0219169083151502179055508173ffffffffffffffffffffffffffffffffffffffff16837f69331970bf0fcdf0e1bcab5a5b121dddcd366a05701b071791a387a80fc918f460405160405180910390a3505050565b60006020528160005260406000206020528060005260406000206000915091509054906101000a900460ff1681565b600160008084815260200190815260200160002060008373ffffffffffffffffffffffffffffffffffffffff1673ffffffffffffffffffffffffffffffffffffffff16815260200190815260200160002060006101000a81548160ff0219169083151502179055508073ffffffffffffffffffffffffffffffffffffffff16827f28be2ad647d19c04889746a89a2c95468f8dcd453018d6d0f2411904e90dff1360405160405180910390a35050565b600081359050610b9581610dd8565b92915050565b600081359050610baa81610def565b92915050565b600060208284031215610bc257600080fd5b6000610bd084828501610b86565b91505092915050565b60008060408385031215610bec57600080fd5b6000610bfa85828601610b9b565b9250506020610c0b85828601610b86565b9150509250929050565b610c1e81610d35565b82525050565b610c2d81610d41565b82525050565b6000610c3e82610d07565b610c488185610d12565b9350610c58818560208601610d6b565b610c6181610d9e565b840191505092915050565b6000610c79600e83610d12565b9150610c8482610daf565b602082019050919050565b6000602082019050610ca46000830184610c15565b92915050565b6000602082019050610cbf6000830184610c24565b92915050565b60006020820190508181036000830152610cdf8184610c33565b905092915050565b60006020820190508181036000830152610d0081610c6c565b9050919050565b600081519050919050565b600082825260208201905092915050565b6000610d2e82610d4b565b9050919050565b60008115159050919050565b6000819050919050565b600073ffffffffffffffffffffffffffffffffffffffff82169050919050565b60005b83811015610d89578082015181840152602081019050610d6e565b83811115610d98576000848401525b50505050565b6000601f19601f8301169050919050565b7f6e6f7420617574686f72697a6564000000000000000000000000000000000000600082015250565b610de181610d23565b8114610dec57600080fd5b50565b610df881610d41565b8114610e0357600080fd5b5056fea2646970667358221220c190ca9edd704c4ea964c738d2d2437aa1f2baa81eaf5dd84ba430cb39580f9864736f6c63430008040033",
  "linkReferences": {},
  "deployedLinkReferences": {}
}