{
  "_format": "hh-sol-artifact-1",
  "contractName": "ShardDAO",
  "sourceName": "contracts/ShardDAO.sol",
  "abi": [
    {
      "inputs": [
        {
          "internalType": "string",
          "name": "_nameOfPosition",
          "type": "string"
        }
      ],
      "stateMutability": "nonpayable",
      "type": "constructor"
    },
    {
      "inputs": [],
      "name": "TooLate",
      "type": "error"
    },
    {
      "anonymous": false,
      "inputs": [
        {
          "indexed": true,
          "internalType": "bytes32",
          "name": "role",
          "type": "bytes32"
        },
        {
          "indexed": true,
          "internalType": "address",
          "name": "account",
          "type": "address"
        }
      ],
      "name": "GrantRoles",
      "type": "event"
    },
    {
      "anonymous": false,
      "inputs": [
        {
          "indexed": false,
          "internalType": "address",
          "name": "account",
          "type": "address"
        }
      ],
      "name": "Paused",
      "type": "event"
    },
    {
      "anonymous": false,
      "inputs": [
        {
          "indexed": false,
          "internalType": "address[]",
          "name": "particants",
          "type": "address[]"
        },
        {
          "indexed": false,
          "internalType": "string",
          "name": "assignedRole",
          "type": "string"
        },
        {
          "indexed": false,
          "internalType": "uint256",
          "name": "registeredAt",
          "type": "uint256"
        }
      ],
      "name": "Register",
      "type": "event"
    },
    {
      "anonymous": false,
      "inputs": [
        {
          "indexed": true,
          "internalType": "bytes32",
          "name": "role",
          "type": "bytes32"
        },
        {
          "indexed": true,
          "internalType": "address",
          "name": "account",
          "type": "address"
        }
      ],
      "name": "RemoveRoles",
      "type": "event"
    },
    {
      "anonymous": false,
      "inputs": [
        {
          "indexed": false,
          "internalType": "address",
          "name": "account",
          "type": "address"
        }
      ],
      "name": "Unpaused",
      "type": "event"
    },
    {
      "anonymous": false,
      "inputs": [
        {
          "indexed": false,
          "internalType": "address",
          "name": "voter",
          "type": "address"
        },
        {
          "indexed": false,
          "internalType": "uint256",
          "name": "votedAt",
          "type": "uint256"
        }
      ],
      "name": "Voted",
      "type": "event"
    },
    {
      "inputs": [],
      "name": "Board",
      "outputs": [
        {
          "internalType": "bytes32",
          "name": "",
          "type": "bytes32"
        }
      ],
      "stateMutability": "view",
      "type": "function"
    },
    {
      "inputs": [],
      "name": "Chairman",
      "outputs": [
        {
          "internalType": "bytes32",
          "name": "",
          "type": "bytes32"
        }
      ],
      "stateMutability": "view",
      "type": "function"
    },
    {
      "inputs": [],
      "name": "Students",
      "outputs": [
        {
          "internalType": "bytes32",
          "name": "",
          "type": "bytes32"
        }
      ],
      "stateMutability": "view",
      "type": "function"
    },
    {
      "inputs": [],
      "name": "Teachers",
      "outputs": [
        {
          "internalType": "bytes32",
          "name": "",
          "type": "bytes32"
        }
      ],
      "stateMutability": "view",
      "type": "function"
    },
    {
      "inputs": [
        {
          "internalType": "string[]",
          "name": "contestantName",
          "type": "string[]"
        },
        {
          "internalType": "address[]",
          "name": "contestantAddress",
          "type": "address[]"
        }
      ],
      "name": "addContestant",
      "outputs": [],
      "stateMutability": "nonpayable",
      "type": "function"
    },
    {
      "inputs": [],
      "name": "chairman",
      "outputs": [
        {
          "internalType": "address",
          "name": "",
          "type": "address"
        }
      ],
      "stateMutability": "view",
      "type": "function"
    },
    {
      "inputs": [
        {
          "internalType": "string",
          "name": "_nameOfPosition",
          "type": "string"
        }
      ],
      "name": "changeNameOfPosition",
      "outputs": [
        {
          "internalType": "bool",
          "name": "",
          "type": "bool"
        }
      ],
      "stateMutability": "nonpayable",
      "type": "function"
    },
    {
      "inputs": [],
      "name": "getAllContestants",
      "outputs": [
        {
          "internalType": "string[]",
          "name": "",
          "type": "string[]"
        },
        {
          "internalType": "address[]",
          "name": "",
          "type": "address[]"
        },
        {
          "internalType": "uint256[]",
          "name": "",
          "type": "uint256[]"
        }
      ],
      "stateMutability": "view",
      "type": "function"
    },
    {
      "inputs": [],
      "name": "getTotalVoteCount",
      "outputs": [
        {
          "internalType": "uint256",
          "name": "",
          "type": "uint256"
        }
      ],
      "stateMutability": "view",
      "type": "function"
    },
    {
      "inputs": [
        {
          "internalType": "address",
          "name": "_address",
          "type": "address"
        }
      ],
      "name": "getUserRole",
      "outputs": [
        {
          "internalType": "string",
          "name": "",
          "type": "string"
        }
      ],
      "stateMutability": "view",
      "type": "function"
    },
    {
      "inputs": [
        {
          "internalType": "bytes32",
          "name": "_role",
          "type": "bytes32"
        },
        {
          "internalType": "address",
          "name": "_account",
          "type": "address"
        }
      ],
      "name": "grantRole",
      "outputs": [],
      "stateMutability": "nonpayable",
      "type": "function"
    },
    {
      "inputs": [
        {
          "internalType": "address",
          "name": "_address",
          "type": "address"
        }
      ],
      "name": "isBoard",
      "outputs": [
        {
          "internalType": "bool",
          "name": "",
          "type": "bool"
        }
      ],
      "stateMutability": "view",
      "type": "function"
    },
    {
      "inputs": [
        {
          "internalType": "address",
          "name": "_address",
          "type": "address"
        }
      ],
      "name": "isChairman",
      "outputs": [
        {
          "internalType": "bool",
          "name": "",
          "type": "bool"
        }
      ],
      "stateMutability": "view",
      "type": "function"
    },
    {
      "inputs": [
        {
          "internalType": "address",
          "name": "_address",
          "type": "address"
        }
      ],
      "name": "isStudent",
      "outputs": [
        {
          "internalType": "bool",
          "name": "",
          "type": "bool"
        }
      ],
      "stateMutability": "view",
      "type": "function"
    },
    {
      "inputs": [
        {
          "internalType": "address",
          "name": "_address",
          "type": "address"
        }
      ],
      "name": "isTeacher",
      "outputs": [
        {
          "internalType": "bool",
          "name": "",
          "type": "bool"
        }
      ],
      "stateMutability": "view",
      "type": "function"
    },
    {
      "inputs": [],
      "name": "nameOfPosition",
      "outputs": [
        {
          "internalType": "string",
          "name": "",
          "type": "string"
        }
      ],
      "stateMutability": "view",
      "type": "function"
    },
    {
      "inputs": [
        {
          "internalType": "address",
          "name": "",
          "type": "address"
        }
      ],
      "name": "particants",
      "outputs": [
        {
          "internalType": "bool",
          "name": "voted",
          "type": "bool"
        },
        {
          "internalType": "bool",
          "name": "registered",
          "type": "bool"
        }
      ],
      "stateMutability": "view",
      "type": "function"
    },
    {
      "inputs": [],
      "name": "pause",
      "outputs": [],
      "stateMutability": "nonpayable",
      "type": "function"
    },
    {
      "inputs": [],
      "name": "paused",
      "outputs": [
        {
          "internalType": "bool",
          "name": "",
          "type": "bool"
        }
      ],
      "stateMutability": "view",
      "type": "function"
    },
    {
      "inputs": [
        {
          "internalType": "address[]",
          "name": "board_members",
          "type": "address[]"
        }
      ],
      "name": "registerBoardMember",
      "outputs": [],
      "stateMutability": "nonpayable",
      "type": "function"
    },
    {
      "inputs": [
        {
          "internalType": "address[]",
          "name": "students",
          "type": "address[]"
        }
      ],
      "name": "registerStudent",
      "outputs": [],
      "stateMutability": "nonpayable",
      "type": "function"
    },
    {
      "inputs": [
        {
          "internalType": "address[]",
          "name": "teachers",
          "type": "address[]"
        }
      ],
      "name": "registerTeacher",
      "outputs": [],
      "stateMutability": "nonpayable",
      "type": "function"
    },
    {
      "inputs": [
        {
          "internalType": "bytes32",
          "name": "_role",
          "type": "bytes32"
        },
        {
          "internalType": "address",
          "name": "_account",
          "type": "address"
        }
      ],
      "name": "removeRole",
      "outputs": [],
      "stateMutability": "nonpayable",
      "type": "function"
    },
    {
      "inputs": [
        {
          "internalType": "bytes32",
          "name": "",
          "type": "bytes32"
        },
        {
          "internalType": "address",
          "name": "",
          "type": "address"
        }
      ],
      "name": "roles",
      "outputs": [
        {
          "internalType": "bool",
          "name": "",
          "type": "bool"
        }
      ],
      "stateMutability": "view",
      "type": "function"
    },
    {
      "inputs": [
        {
          "internalType": "uint256",
          "name": "_time",
          "type": "uint256"
        }
      ],
      "name": "setVoteTime",
      "outputs": [
        {
          "internalType": "bool",
          "name": "",
          "type": "bool"
        }
      ],
      "stateMutability": "nonpayable",
      "type": "function"
    },
    {
      "inputs": [
        {
          "internalType": "uint256",
          "name": "_time",
          "type": "uint256"
        }
      ],
      "name": "startElection",
      "outputs": [],
      "stateMutability": "nonpayable",
      "type": "function"
    },
    {
      "inputs": [],
      "name": "unpause",
      "outputs": [],
      "stateMutability": "nonpayable",
      "type": "function"
    },
    {
      "inputs": [
        {
          "internalType": "uint256",
          "name": "_contestantId",
          "type": "uint256"
        }
      ],
      "name": "vote",
      "outputs": [],
      "stateMutability": "nonpayable",
      "type": "function"
    },
    {
      "inputs": [],
      "name": "winnerNameAndAddress",
      "outputs": [
        {
          "internalType": "string",
          "name": "winnerName_",
          "type": "string"
        },
        {
          "internalType": "address",
          "name": "winnerAddress_",
          "type": "address"
        }
      ],
      "stateMutability": "nonpayable",
      "type": "function"
    }
  ],
  "bytecode": "0x60806040523480156200001157600080fd5b5060405162004a4038038062004a4083398181016040528101906200003791906200045a565b60008060006101000a81548160ff021916908315150217905550620000837f76dfba581cd3b5e02cf3469ec59636d3b2bc677066188c2346f32f81a159710033620001b360201b60201c565b80600590805190602001906200009b92919062000338565b5033600460006101000a81548173ffffffffffffffffffffffffffffffffffffffff021916908373ffffffffffffffffffffffffffffffffffffffff16021790555060405180604001604052806000151581526020016001151581525060026000600460009054906101000a900473ffffffffffffffffffffffffffffffffffffffff1673ffffffffffffffffffffffffffffffffffffffff1673ffffffffffffffffffffffffffffffffffffffff16815260200190815260200160002060008201518160000160006101000a81548160ff02191690831515021790555060208201518160000160016101000a81548160ff021916908315150217905550905050620001ac6200026360201b60201c565b50620006f4565b600180600084815260200190815260200160002060008373ffffffffffffffffffffffffffffffffffffffff1673ffffffffffffffffffffffffffffffffffffffff16815260200190815260200160002060006101000a81548160ff0219169083151502179055508073ffffffffffffffffffffffffffffffffffffffff16827f28be2ad647d19c04889746a89a2c95468f8dcd453018d6d0f2411904e90dff1360405160405180910390a35050565b620002736200031a60201b60201c565b15620002b6576040517f08c379a0000000000000000000000000000000000000000000000000000000008152600401620002ad90620004f4565b60405180910390fd5b60016000806101000a81548160ff0219169083151502179055507f62e78cea01bee320cd4e420270b5ea74000d11b0c9f74754ebdbfc544b05a258620003016200033060201b60201c565b604051620003109190620004d7565b60405180910390a1565b60008060009054906101000a900460ff16905090565b600033905090565b8280546200034690620005f0565b90600052602060002090601f0160209004810192826200036a5760008555620003b6565b82601f106200038557805160ff1916838001178555620003b6565b82800160010185558215620003b6579182015b82811115620003b557825182559160200191906001019062000398565b5b509050620003c59190620003c9565b5090565b5b80821115620003e4576000816000905550600101620003ca565b5090565b6000620003ff620003f9846200053f565b62000516565b9050828152602081018484840111156200041857600080fd5b62000425848285620005ba565b509392505050565b600082601f8301126200043f57600080fd5b815162000451848260208601620003e8565b91505092915050565b6000602082840312156200046d57600080fd5b600082015167ffffffffffffffff8111156200048857600080fd5b62000496848285016200042d565b91505092915050565b620004aa8162000586565b82525050565b6000620004bf60108362000575565b9150620004cc82620006cb565b602082019050919050565b6000602082019050620004ee60008301846200049f565b92915050565b600060208201905081810360008301526200050f81620004b0565b9050919050565b60006200052262000535565b905062000530828262000626565b919050565b6000604051905090565b600067ffffffffffffffff8211156200055d576200055c6200068b565b5b6200056882620006ba565b9050602081019050919050565b600082825260208201905092915050565b600062000593826200059a565b9050919050565b600073ffffffffffffffffffffffffffffffffffffffff82169050919050565b60005b83811015620005da578082015181840152602081019050620005bd565b83811115620005ea576000848401525b50505050565b600060028204905060018216806200060957607f821691505b6020821081141562000620576200061f6200065c565b5b50919050565b6200063182620006ba565b810181811067ffffffffffffffff821117156200065357620006526200068b565b5b80604052505050565b7f4e487b7100000000000000000000000000000000000000000000000000000000600052602260045260246000fd5b7f4e487b7100000000000000000000000000000000000000000000000000000000600052604160045260246000fd5b6000601f19601f8301169050919050565b7f5061757361626c653a2070617573656400000000000000000000000000000000600082015250565b61433c80620007046000396000f3fe608060405234801561001057600080fd5b50600436106101cf5760003560e01c80636d32dc4b116101045780639cc47719116100a2578063bc0a5b0511610071578063bc0a5b0514610520578063d70cab6414610540578063f6ba00071461055c578063f8fc08b914610578576101cf565b80639cc47719146104865780639f7dcd0f146104b6578063aec37eb3146104d4578063b86b0c3a14610504576101cf565b806382f7d392116100de57806382f7d392146104105780638456cb591461044057806387f7b9751461044a5780639ca0f71414610468576101cf565b80636d32dc4b146103a657806374a162bd146103c2578063761ecf31146103e0576101cf565b80633828725911610171578063509cd3601161014b578063509cd3601461032d57806355d51f2f1461034b5780635c975abb1461036a5780636bbf8fea14610388576101cf565b806338287259146102c25780633f4ba83a146102f2578063481518d8146102fc576101cf565b806327820851116101ad578063278208511461023c578063288c72e81461026c5780632f2ff15d1461028a57806334b7affa146102a6576101cf565b80630121b93f146101d45780630aab6cf6146101f05780631fc26a5614610220575b600080fd5b6101ee60048036038101906101e9919061333a565b6105a8565b005b61020a600480360381019061020591906131e7565b610876565b6040516102179190613950565b60405180910390f35b61023a60048036038101906102359190613210565b6108fd565b005b610256600480360381019061025191906131e7565b610c7c565b60405161026391906139af565b60405180910390f35b610274610fbc565b6040516102819190613bc1565b60405180910390f35b6102a4600480360381019061029f91906132bd565b610fc6565b005b6102c060048036038101906102bb9190613251565b611093565b005b6102dc60048036038101906102d791906131e7565b611423565b6040516102e99190613950565b60405180910390f35b6102fa6114aa565b005b610316600480360381019061031191906131e7565b611573565b60405161032492919061396b565b60405180910390f35b6103356115b1565b6040516103429190613994565b60405180910390f35b6103536115d5565b6040516103619291906139d1565b60405180910390f35b6103726118a6565b60405161037f9190613950565b60405180910390f35b6103906118bc565b60405161039d91906139af565b60405180910390f35b6103c060048036038101906103bb919061333a565b61194a565b005b6103ca611afc565b6040516103d79190613994565b60405180910390f35b6103fa60048036038101906103f5919061333a565b611b20565b6040516104079190613950565b60405180910390f35b61042a600480360381019061042591906131e7565b611c9f565b6040516104379190613950565b60405180910390f35b610448611d26565b005b610452611def565b60405161045f91906137f7565b60405180910390f35b610470611e15565b60405161047d9190613994565b60405180910390f35b6104a0600480360381019061049b91906132f9565b611e39565b6040516104ad9190613950565b60405180910390f35b6104be611f1a565b6040516104cb9190613994565b60405180910390f35b6104ee60048036038101906104e991906131e7565b611f3e565b6040516104fb9190613950565b60405180910390f35b61051e60048036038101906105199190613210565b611fc5565b005b610528612344565b60405161053793929190613904565b60405180910390f35b61055a60048036038101906105559190613210565b61276a565b005b610576600480360381019061057191906132bd565b612ae9565b005b610592600480360381019061058d91906132bd565b612c59565b60405161059f9190613950565b60405180910390f35b6105b06118a6565b156105f0576040517f08c379a00000000000000000000000000000000000000000000000000000000081526004016105e790613a81565b60405180910390fd5b600060075411610635576040517f08c379a000000000000000000000000000000000000000000000000000000000815260040161062c90613ba1565b60405180910390fd5b6007546006546106459190613d62565b421061067d576040517fecdd1c2900000000000000000000000000000000000000000000000000000000815260040160405180910390fd5b600260003373ffffffffffffffffffffffffffffffffffffffff1673ffffffffffffffffffffffffffffffffffffffff16815260200190815260200160002060000160019054906101000a900460ff1661070c576040517f08c379a000000000000000000000000000000000000000000000000000000000815260040161070390613b41565b60405180910390fd5b6000600260003373ffffffffffffffffffffffffffffffffffffffff1673ffffffffffffffffffffffffffffffffffffffff16815260200190815260200160002090508060000160009054906101000a900460ff16156107a1576040517f08c379a000000000000000000000000000000000000000000000000000000000815260040161079890613a41565b60405180910390fd5b60018160000160006101000a81548160ff0219169083151502179055506001600383815481106107fa577f4e487b7100000000000000000000000000000000000000000000000000000000600052603260045260246000fd5b9060005260206000209060030201600201600082825461081a9190613d62565b925050819055506008600081548092919061083490613eaf565b91905055507f4d99b957a2bc29a30ebd96a7be8e68fe50a3c701db28a91436490b7d53870ca4334260405161086a929190613812565b60405180910390a15050565b6000600160007f440f0b4326c1ea763c9f96608623635c8105d5cc0e4b4f20a4e4fe0546b15eeb815260200190815260200160002060008373ffffffffffffffffffffffffffffffffffffffff1673ffffffffffffffffffffffffffffffffffffffff16815260200190815260200160002060009054906101000a900460ff169050919050565b600160007f76dfba581cd3b5e02cf3469ec59636d3b2bc677066188c2346f32f81a1597100815260200190815260200160002060003373ffffffffffffffffffffffffffffffffffffffff1673ffffffffffffffffffffffffffffffffffffffff16815260200190815260200160002060009054906101000a900460ff1680610a005750600160007f24428a7c8016b6f2b3148e1c17f4bed00ad0f5ab53b599683050e4e0aced359b815260200190815260200160002060003373ffffffffffffffffffffffffffffffffffffffff1673ffffffffffffffffffffffffffffffffffffffff16815260200190815260200160002060009054906101000a900460ff165b610a0957600080fd5b60005b8151811015610c3f5760026000838381518110610a52577f4e487b7100000000000000000000000000000000000000000000000000000000600052603260045260246000fd5b602002602001015173ffffffffffffffffffffffffffffffffffffffff1673ffffffffffffffffffffffffffffffffffffffff16815260200190815260200160002060000160019054906101000a900460ff1615610ae5576040517f08c379a0000000000000000000000000000000000000000000000000000000008152600401610adc90613b21565b60405180910390fd5b60405180604001604052806000151581526020016001151581525060026000848481518110610b3d577f4e487b7100000000000000000000000000000000000000000000000000000000600052603260045260246000fd5b602002602001015173ffffffffffffffffffffffffffffffffffffffff1673ffffffffffffffffffffffffffffffffffffffff16815260200190815260200160002060008201518160000160006101000a81548160ff02191690831515021790555060208201518160000160016101000a81548160ff021916908315150217905550905050610c2c7f6d7942b32c5633723435ccc7414ccb4e054f91ce4a595460bedf2f56bb0f5a5a838381518110610c1f577f4e487b7100000000000000000000000000000000000000000000000000000000600052603260045260246000fd5b6020026020010151612c88565b8080610c3790613eaf565b915050610a0c565b507faf22aa55528a5384993a5903832252d32d097f04e58d7929ef5128fe8158556a8142604051610c719291906138c1565b60405180910390a150565b6060600160007f76dfba581cd3b5e02cf3469ec59636d3b2bc677066188c2346f32f81a1597100815260200190815260200160002060008373ffffffffffffffffffffffffffffffffffffffff1673ffffffffffffffffffffffffffffffffffffffff16815260200190815260200160002060009054906101000a900460ff1615610d3e576040518060400160405280600881526020017f43686169726d616e0000000000000000000000000000000000000000000000008152509050610fb7565b600160007f440f0b4326c1ea763c9f96608623635c8105d5cc0e4b4f20a4e4fe0546b15eeb815260200190815260200160002060008373ffffffffffffffffffffffffffffffffffffffff1673ffffffffffffffffffffffffffffffffffffffff16815260200190815260200160002060009054906101000a900460ff1615610dfe576040518060400160405280600581526020017f426f6172640000000000000000000000000000000000000000000000000000008152509050610fb7565b600160007f24428a7c8016b6f2b3148e1c17f4bed00ad0f5ab53b599683050e4e0aced359b815260200190815260200160002060008373ffffffffffffffffffffffffffffffffffffffff1673ffffffffffffffffffffffffffffffffffffffff16815260200190815260200160002060009054906101000a900460ff1615610ebe576040518060400160405280600881526020017f54656163686572730000000000000000000000000000000000000000000000008152509050610fb7565b600160007f6d7942b32c5633723435ccc7414ccb4e054f91ce4a595460bedf2f56bb0f5a5a815260200190815260200160002060008373ffffffffffffffffffffffffffffffffffffffff1673ffffffffffffffffffffffffffffffffffffffff16815260200190815260200160002060009054906101000a900460ff1615610f7e576040518060400160405280600881526020017f53747564656e74730000000000000000000000000000000000000000000000008152509050610fb7565b6040518060400160405280600e81526020017f6e6f74207265676973746572656400000000000000000000000000000000000081525090505b919050565b6000600854905090565b7f76dfba581cd3b5e02cf3469ec59636d3b2bc677066188c2346f32f81a15971006001600082815260200190815260200160002060003373ffffffffffffffffffffffffffffffffffffffff1673ffffffffffffffffffffffffffffffffffffffff16815260200190815260200160002060009054906101000a900460ff16611084576040517f08c379a000000000000000000000000000000000000000000000000000000000815260040161107b90613ae1565b60405180910390fd5b61108e8383612c88565b505050565b600160007f76dfba581cd3b5e02cf3469ec59636d3b2bc677066188c2346f32f81a1597100815260200190815260200160002060003373ffffffffffffffffffffffffffffffffffffffff1673ffffffffffffffffffffffffffffffffffffffff16815260200190815260200160002060009054906101000a900460ff16806111965750600160007f24428a7c8016b6f2b3148e1c17f4bed00ad0f5ab53b599683050e4e0aced359b815260200190815260200160002060003373ffffffffffffffffffffffffffffffffffffffff1673ffffffffffffffffffffffffffffffffffffffff16815260200190815260200160002060009054906101000a900460ff165b61119f57600080fd5b80518251146111e3576040517f08c379a00000000000000000000000000000000000000000000000000000000081526004016111da90613ac1565b60405180910390fd5b60005b825181101561141e576002600083838151811061122c577f4e487b7100000000000000000000000000000000000000000000000000000000600052603260045260246000fd5b602002602001015173ffffffffffffffffffffffffffffffffffffffff1673ffffffffffffffffffffffffffffffffffffffff16815260200190815260200160002060000160019054906101000a900460ff166112be576040517f08c379a00000000000000000000000000000000000000000000000000000000081526004016112b590613b01565b60405180910390fd5b60036040518060600160405280858481518110611304577f4e487b7100000000000000000000000000000000000000000000000000000000600052603260045260246000fd5b6020026020010151815260200184848151811061134a577f4e487b7100000000000000000000000000000000000000000000000000000000600052603260045260246000fd5b602002602001015173ffffffffffffffffffffffffffffffffffffffff1681526020016000815250908060018154018082558091505060019003906000526020600020906003020160009091909190915060008201518160000190805190602001906113b7929190612f57565b5060208201518160010160006101000a81548173ffffffffffffffffffffffffffffffffffffffff021916908373ffffffffffffffffffffffffffffffffffffffff160217905550604082015181600201555050808061141690613eaf565b9150506111e6565b505050565b6000600160007f76dfba581cd3b5e02cf3469ec59636d3b2bc677066188c2346f32f81a1597100815260200190815260200160002060008373ffffffffffffffffffffffffffffffffffffffff1673ffffffffffffffffffffffffffffffffffffffff16815260200190815260200160002060009054906101000a900460ff169050919050565b7f76dfba581cd3b5e02cf3469ec59636d3b2bc677066188c2346f32f81a15971006001600082815260200190815260200160002060003373ffffffffffffffffffffffffffffffffffffffff1673ffffffffffffffffffffffffffffffffffffffff16815260200190815260200160002060009054906101000a900460ff16611568576040517f08c379a000000000000000000000000000000000000000000000000000000000815260040161155f90613ae1565b60405180910390fd5b611570612d38565b50565b60026020528060005260406000206000915090508060000160009054906101000a900460ff16908060000160019054906101000a900460ff16905082565b7f440f0b4326c1ea763c9f96608623635c8105d5cc0e4b4f20a4e4fe0546b15eeb81565b60606000600160007f76dfba581cd3b5e02cf3469ec59636d3b2bc677066188c2346f32f81a1597100815260200190815260200160002060003373ffffffffffffffffffffffffffffffffffffffff1673ffffffffffffffffffffffffffffffffffffffff16815260200190815260200160002060009054906101000a900460ff16806116dc5750600160007f24428a7c8016b6f2b3148e1c17f4bed00ad0f5ab53b599683050e4e0aced359b815260200190815260200160002060003373ffffffffffffffffffffffffffffffffffffffff1673ffffffffffffffffffffffffffffffffffffffff16815260200190815260200160002060009054906101000a900460ff165b6116e557600080fd5b6007546006546116f59190613d62565b42101561170157600080fd5b6117096118a6565b15611749576040517f08c379a000000000000000000000000000000000000000000000000000000000815260040161174090613a81565b60405180910390fd5b6000611753612dd9565b90506003818154811061178f577f4e487b7100000000000000000000000000000000000000000000000000000000600052603260045260246000fd5b906000526020600020906003020160000180546117ab90613e4c565b80601f01602080910402602001604051908101604052809291908181526020018280546117d790613e4c565b80156118245780601f106117f957610100808354040283529160200191611824565b820191906000526020600020905b81548152906001019060200180831161180757829003601f168201915b5050505050925060038181548110611865577f4e487b7100000000000000000000000000000000000000000000000000000000600052603260045260246000fd5b906000526020600020906003020160010160009054906101000a900473ffffffffffffffffffffffffffffffffffffffff1691506000600781905550509091565b60008060009054906101000a900460ff16905090565b600580546118c990613e4c565b80601f01602080910402602001604051908101604052809291908181526020018280546118f590613e4c565b80156119425780601f1061191757610100808354040283529160200191611942565b820191906000526020600020905b81548152906001019060200180831161192557829003601f168201915b505050505081565b600160007f76dfba581cd3b5e02cf3469ec59636d3b2bc677066188c2346f32f81a1597100815260200190815260200160002060003373ffffffffffffffffffffffffffffffffffffffff1673ffffffffffffffffffffffffffffffffffffffff16815260200190815260200160002060009054906101000a900460ff1680611a4d5750600160007f24428a7c8016b6f2b3148e1c17f4bed00ad0f5ab53b599683050e4e0aced359b815260200190815260200160002060003373ffffffffffffffffffffffffffffffffffffffff1673ffffffffffffffffffffffffffffffffffffffff16815260200190815260200160002060009054906101000a900460ff165b611a5657600080fd5b600060075414611a9b576040517f08c379a0000000000000000000000000000000000000000000000000000000008152600401611a9290613b61565b60405180910390fd5b600060038054905011611ae3576040517f08c379a0000000000000000000000000000000000000000000000000000000008152600401611ada90613a61565b60405180910390fd5b4260068190555080600781905550611af9612d38565b50565b7f24428a7c8016b6f2b3148e1c17f4bed00ad0f5ab53b599683050e4e0aced359b81565b6000600160007f76dfba581cd3b5e02cf3469ec59636d3b2bc677066188c2346f32f81a1597100815260200190815260200160002060003373ffffffffffffffffffffffffffffffffffffffff1673ffffffffffffffffffffffffffffffffffffffff16815260200190815260200160002060009054906101000a900460ff1680611c255750600160007f24428a7c8016b6f2b3148e1c17f4bed00ad0f5ab53b599683050e4e0aced359b815260200190815260200160002060003373ffffffffffffffffffffffffffffffffffffffff1673ffffffffffffffffffffffffffffffffffffffff16815260200190815260200160002060009054906101000a900460ff165b611c2e57600080fd5b600754600654611c3e9190613d62565b421015611c4a57600080fd5b600060075411611c8f576040517f08c379a0000000000000000000000000000000000000000000000000000000008152600401611c8690613a21565b60405180910390fd5b8160078190555060019050919050565b6000600160007f6d7942b32c5633723435ccc7414ccb4e054f91ce4a595460bedf2f56bb0f5a5a815260200190815260200160002060008373ffffffffffffffffffffffffffffffffffffffff1673ffffffffffffffffffffffffffffffffffffffff16815260200190815260200160002060009054906101000a900460ff169050919050565b7f76dfba581cd3b5e02cf3469ec59636d3b2bc677066188c2346f32f81a15971006001600082815260200190815260200160002060003373ffffffffffffffffffffffffffffffffffffffff1673ffffffffffffffffffffffffffffffffffffffff16815260200190815260200160002060009054906101000a900460ff16611de4576040517f08c379a0000000000000000000000000000000000000000000000000000000008152600401611ddb90613ae1565b60405180910390fd5b611dec612ead565b50565b600460009054906101000a900473ffffffffffffffffffffffffffffffffffffffff1681565b7f6d7942b32c5633723435ccc7414ccb4e054f91ce4a595460bedf2f56bb0f5a5a81565b60007f76dfba581cd3b5e02cf3469ec59636d3b2bc677066188c2346f32f81a15971006001600082815260200190815260200160002060003373ffffffffffffffffffffffffffffffffffffffff1673ffffffffffffffffffffffffffffffffffffffff16815260200190815260200160002060009054906101000a900460ff16611ef9576040517f08c379a0000000000000000000000000000000000000000000000000000000008152600401611ef090613ae1565b60405180910390fd5b8260059080519060200190611f0f929190612f57565b506001915050919050565b7f76dfba581cd3b5e02cf3469ec59636d3b2bc677066188c2346f32f81a159710081565b6000600160007f24428a7c8016b6f2b3148e1c17f4bed00ad0f5ab53b599683050e4e0aced359b815260200190815260200160002060008373ffffffffffffffffffffffffffffffffffffffff1673ffffffffffffffffffffffffffffffffffffffff16815260200190815260200160002060009054906101000a900460ff169050919050565b600160007f76dfba581cd3b5e02cf3469ec59636d3b2bc677066188c2346f32f81a1597100815260200190815260200160002060003373ffffffffffffffffffffffffffffffffffffffff1673ffffffffffffffffffffffffffffffffffffffff16815260200190815260200160002060009054906101000a900460ff16806120c85750600160007f24428a7c8016b6f2b3148e1c17f4bed00ad0f5ab53b599683050e4e0aced359b815260200190815260200160002060003373ffffffffffffffffffffffffffffffffffffffff1673ffffffffffffffffffffffffffffffffffffffff16815260200190815260200160002060009054906101000a900460ff165b6120d157600080fd5b60005b8151811015612307576002600083838151811061211a577f4e487b7100000000000000000000000000000000000000000000000000000000600052603260045260246000fd5b602002602001015173ffffffffffffffffffffffffffffffffffffffff1673ffffffffffffffffffffffffffffffffffffffff16815260200190815260200160002060000160019054906101000a900460ff16156121ad576040517f08c379a00000000000000000000000000000000000000000000000000000000081526004016121a490613b81565b60405180910390fd5b60405180604001604052806000151581526020016001151581525060026000848481518110612205577f4e487b7100000000000000000000000000000000000000000000000000000000600052603260045260246000fd5b602002602001015173ffffffffffffffffffffffffffffffffffffffff1673ffffffffffffffffffffffffffffffffffffffff16815260200190815260200160002060008201518160000160006101000a81548160ff02191690831515021790555060208201518160000160016101000a81548160ff0219169083151502179055509050506122f47f24428a7c8016b6f2b3148e1c17f4bed00ad0f5ab53b599683050e4e0aced359b8383815181106122e7577f4e487b7100000000000000000000000000000000000000000000000000000000600052603260045260246000fd5b6020026020010151612c88565b80806122ff90613eaf565b9150506120d4565b507faf22aa55528a5384993a5903832252d32d097f04e58d7929ef5128fe8158556a814260405161233992919061383b565b60405180910390a150565b60608060606000600380549050905060008167ffffffffffffffff811115612395577f4e487b7100000000000000000000000000000000000000000000000000000000600052604160045260246000fd5b6040519080825280602002602001820160405280156123c857816020015b60608152602001906001900390816123b35790505b50905060008267ffffffffffffffff81111561240d577f4e487b7100000000000000000000000000000000000000000000000000000000600052604160045260246000fd5b60405190808252806020026020018201604052801561243b5781602001602082028036833780820191505090505b50905060008367ffffffffffffffff811115612480577f4e487b7100000000000000000000000000000000000000000000000000000000600052604160045260246000fd5b6040519080825280602002602001820160405280156124ae5781602001602082028036833780820191505090505b50905060005b8481101561275757600381815481106124f6577f4e487b7100000000000000000000000000000000000000000000000000000000600052603260045260246000fd5b9060005260206000209060030201600001805461251290613e4c565b80601f016020809104026020016040519081016040528092919081815260200182805461253e90613e4c565b801561258b5780601f106125605761010080835404028352916020019161258b565b820191906000526020600020905b81548152906001019060200180831161256e57829003601f168201915b50505050508482815181106125c9577f4e487b7100000000000000000000000000000000000000000000000000000000600052603260045260246000fd5b60200260200101819052506003818154811061260e577f4e487b7100000000000000000000000000000000000000000000000000000000600052603260045260246000fd5b906000526020600020906003020160010160009054906101000a900473ffffffffffffffffffffffffffffffffffffffff16838281518110612679577f4e487b7100000000000000000000000000000000000000000000000000000000600052603260045260246000fd5b602002602001019073ffffffffffffffffffffffffffffffffffffffff16908173ffffffffffffffffffffffffffffffffffffffff1681525050600381815481106126ed577f4e487b7100000000000000000000000000000000000000000000000000000000600052603260045260246000fd5b906000526020600020906003020160020154828281518110612738577f4e487b7100000000000000000000000000000000000000000000000000000000600052603260045260246000fd5b602002602001018181525050808061274f90613eaf565b9150506124b4565b5082828296509650965050505050909192565b600160007f76dfba581cd3b5e02cf3469ec59636d3b2bc677066188c2346f32f81a1597100815260200190815260200160002060003373ffffffffffffffffffffffffffffffffffffffff1673ffffffffffffffffffffffffffffffffffffffff16815260200190815260200160002060009054906101000a900460ff168061286d5750600160007f24428a7c8016b6f2b3148e1c17f4bed00ad0f5ab53b599683050e4e0aced359b815260200190815260200160002060003373ffffffffffffffffffffffffffffffffffffffff1673ffffffffffffffffffffffffffffffffffffffff16815260200190815260200160002060009054906101000a900460ff165b61287657600080fd5b60005b8151811015612aac57600260008383815181106128bf577f4e487b7100000000000000000000000000000000000000000000000000000000600052603260045260246000fd5b602002602001015173ffffffffffffffffffffffffffffffffffffffff1673ffffffffffffffffffffffffffffffffffffffff16815260200190815260200160002060000160019054906101000a900460ff1615612952576040517f08c379a000000000000000000000000000000000000000000000000000000000815260040161294990613aa1565b60405180910390fd5b604051806040016040528060001515815260200160011515815250600260008484815181106129aa577f4e487b7100000000000000000000000000000000000000000000000000000000600052603260045260246000fd5b602002602001015173ffffffffffffffffffffffffffffffffffffffff1673ffffffffffffffffffffffffffffffffffffffff16815260200190815260200160002060008201518160000160006101000a81548160ff02191690831515021790555060208201518160000160016101000a81548160ff021916908315150217905550905050612a997f440f0b4326c1ea763c9f96608623635c8105d5cc0e4b4f20a4e4fe0546b15eeb838381518110612a8c577f4e487b7100000000000000000000000000000000000000000000000000000000600052603260045260246000fd5b6020026020010151612c88565b8080612aa490613eaf565b915050612879565b507faf22aa55528a5384993a5903832252d32d097f04e58d7929ef5128fe8158556a8142604051612ade92919061387e565b60405180910390a150565b7f76dfba581cd3b5e02cf3469ec59636d3b2bc677066188c2346f32f81a15971006001600082815260200190815260200160002060003373ffffffffffffffffffffffffffffffffffffffff1673ffffffffffffffffffffffffffffffffffffffff16815260200190815260200160002060009054906101000a900460ff16612ba7576040517f08c379a0000000000000000000000000000000000000000000000000000000008152600401612b9e90613ae1565b60405180910390fd5b60006001600085815260200190815260200160002060008473ffffffffffffffffffffffffffffffffffffffff1673ffffffffffffffffffffffffffffffffffffffff16815260200190815260200160002060006101000a81548160ff0219169083151502179055508173ffffffffffffffffffffffffffffffffffffffff16837f69331970bf0fcdf0e1bcab5a5b121dddcd366a05701b071791a387a80fc918f460405160405180910390a3505050565b60016020528160005260406000206020528060005260406000206000915091509054906101000a900460ff1681565b600180600084815260200190815260200160002060008373ffffffffffffffffffffffffffffffffffffffff1673ffffffffffffffffffffffffffffffffffffffff16815260200190815260200160002060006101000a81548160ff0219169083151502179055508073ffffffffffffffffffffffffffffffffffffffff16827f28be2ad647d19c04889746a89a2c95468f8dcd453018d6d0f2411904e90dff1360405160405180910390a35050565b612d406118a6565b612d7f576040517f08c379a0000000000000000000000000000000000000000000000000000000008152600401612d7690613a01565b60405180910390fd5b60008060006101000a81548160ff0219169083151502179055507f5db9ee0a495bf2e6ff9c91a7834c1ba4fdd244a5e8aa4e537bd38aeae4b073aa612dc2612f4f565b604051612dcf91906137f7565b60405180910390a1565b6000806000905060005b600380549050811015612ea8578160038281548110612e2b577f4e487b7100000000000000000000000000000000000000000000000000000000600052603260045260246000fd5b9060005260206000209060030201600201541115612e955760038181548110612e7d577f4e487b7100000000000000000000000000000000000000000000000000000000600052603260045260246000fd5b90600052602060002090600302016002015491508092505b8080612ea090613eaf565b915050612de3565b505090565b612eb56118a6565b15612ef5576040517f08c379a0000000000000000000000000000000000000000000000000000000008152600401612eec90613a81565b60405180910390fd5b60016000806101000a81548160ff0219169083151502179055507f62e78cea01bee320cd4e420270b5ea74000d11b0c9f74754ebdbfc544b05a258612f38612f4f565b604051612f4591906137f7565b60405180910390a1565b600033905090565b828054612f6390613e4c565b90600052602060002090601f016020900481019282612f855760008555612fcc565b82601f10612f9e57805160ff1916838001178555612fcc565b82800160010185558215612fcc579182015b82811115612fcb578251825591602001919060010190612fb0565b5b509050612fd99190612fdd565b5090565b5b80821115612ff6576000816000905550600101612fde565b5090565b600061300d61300884613c01565b613bdc565b9050808382526020820190508285602086028201111561302c57600080fd5b60005b8581101561305c5781613042888261312a565b84526020840193506020830192505060018101905061302f565b5050509392505050565b600061307961307484613c2d565b613bdc565b9050808382526020820190508285602086028201111561309857600080fd5b60005b858110156130e257813567ffffffffffffffff8111156130ba57600080fd5b8086016130c789826131a8565b8552602085019450602084019350505060018101905061309b565b5050509392505050565b60006130ff6130fa84613c59565b613bdc565b90508281526020810184848401111561311757600080fd5b613122848285613e0a565b509392505050565b600081359050613139816142c1565b92915050565b600082601f83011261315057600080fd5b8135613160848260208601612ffa565b91505092915050565b600082601f83011261317a57600080fd5b813561318a848260208601613066565b91505092915050565b6000813590506131a2816142d8565b92915050565b600082601f8301126131b957600080fd5b81356131c98482602086016130ec565b91505092915050565b6000813590506131e1816142ef565b92915050565b6000602082840312156131f957600080fd5b60006132078482850161312a565b91505092915050565b60006020828403121561322257600080fd5b600082013567ffffffffffffffff81111561323c57600080fd5b6132488482850161313f565b91505092915050565b6000806040838503121561326457600080fd5b600083013567ffffffffffffffff81111561327e57600080fd5b61328a85828601613169565b925050602083013567ffffffffffffffff8111156132a757600080fd5b6132b38582860161313f565b9150509250929050565b600080604083850312156132d057600080fd5b60006132de85828601613193565b92505060206132ef8582860161312a565b9150509250929050565b60006020828403121561330b57600080fd5b600082013567ffffffffffffffff81111561332557600080fd5b613331848285016131a8565b91505092915050565b60006020828403121561334c57600080fd5b600061335a848285016131d2565b91505092915050565b600061336f83836133a7565b60208301905092915050565b60006133878383613514565b905092915050565b600061339b83836137d9565b60208301905092915050565b6133b081613db8565b82525050565b6133bf81613db8565b82525050565b60006133d082613cba565b6133da8185613d0d565b93506133e583613c8a565b8060005b838110156134165781516133fd8882613363565b975061340883613ce6565b9250506001810190506133e9565b5085935050505092915050565b600061342e82613cc5565b6134388185613d1e565b93508360208202850161344a85613c9a565b8060005b858110156134865784840389528151613467858261337b565b945061347283613cf3565b925060208a0199505060018101905061344e565b50829750879550505050505092915050565b60006134a382613cd0565b6134ad8185613d2f565b93506134b883613caa565b8060005b838110156134e95781516134d0888261338f565b97506134db83613d00565b9250506001810190506134bc565b5085935050505092915050565b6134ff81613dca565b82525050565b61350e81613dd6565b82525050565b600061351f82613cdb565b6135298185613d40565b9350613539818560208601613e19565b61354281613f85565b840191505092915050565b600061355882613cdb565b6135628185613d51565b9350613572818560208601613e19565b61357b81613f85565b840191505092915050565b6000613593601483613d51565b915061359e82613f96565b602082019050919050565b60006135b6602483613d51565b91506135c182613fbf565b604082019050919050565b60006135d9600783613d51565b91506135e48261400e565b602082019050919050565b60006135fc600e83613d51565b915061360782614037565b602082019050919050565b600061361f602783613d51565b915061362a82614060565b604082019050919050565b6000613642601083613d51565b915061364d826140af565b602082019050919050565b6000613665601f83613d51565b9150613670826140d8565b602082019050919050565b6000613688601983613d51565b915061369382614101565b602082019050919050565b60006136ab600e83613d51565b91506136b68261412a565b602082019050919050565b60006136ce601a83613d51565b91506136d982614153565b602082019050919050565b60006136f1601a83613d51565b91506136fc8261417c565b602082019050919050565b6000613714602583613d51565b915061371f826141a5565b604082019050919050565b6000613737600c83613d51565b9150613742826141f4565b602082019050919050565b600061375a601c83613d51565b91506137658261421d565b602082019050919050565b600061377d601a83613d51565b915061378882614246565b602082019050919050565b60006137a0600783613d51565b91506137ab8261426f565b602082019050919050565b60006137c3601a83613d51565b91506137ce82614298565b602082019050919050565b6137e281613e00565b82525050565b6137f181613e00565b82525050565b600060208201905061380c60008301846133b6565b92915050565b600060408201905061382760008301856133b6565b61383460208301846137e8565b9392505050565b6000606082019050818103600083015261385581856133c5565b90508181036020830152613868816135cc565b905061387760408301846137e8565b9392505050565b6000606082019050818103600083015261389881856133c5565b905081810360208301526138ab8161372a565b90506138ba60408301846137e8565b9392505050565b600060608201905081810360008301526138db81856133c5565b905081810360208301526138ee81613793565b90506138fd60408301846137e8565b9392505050565b6000606082019050818103600083015261391e8186613423565b9050818103602083015261393281856133c5565b905081810360408301526139468184613498565b9050949350505050565b600060208201905061396560008301846134f6565b92915050565b600060408201905061398060008301856134f6565b61398d60208301846134f6565b9392505050565b60006020820190506139a96000830184613505565b92915050565b600060208201905081810360008301526139c9818461354d565b905092915050565b600060408201905081810360008301526139eb818561354d565b90506139fa60208301846133b6565b9392505050565b60006020820190508181036000830152613a1a81613586565b9050919050565b60006020820190508181036000830152613a3a816135a9565b9050919050565b60006020820190508181036000830152613a5a816135ef565b9050919050565b60006020820190508181036000830152613a7a81613612565b9050919050565b60006020820190508181036000830152613a9a81613635565b9050919050565b60006020820190508181036000830152613aba81613658565b9050919050565b60006020820190508181036000830152613ada8161367b565b9050919050565b60006020820190508181036000830152613afa8161369e565b9050919050565b60006020820190508181036000830152613b1a816136c1565b9050919050565b60006020820190508181036000830152613b3a816136e4565b9050919050565b60006020820190508181036000830152613b5a81613707565b9050919050565b60006020820190508181036000830152613b7a8161374d565b9050919050565b60006020820190508181036000830152613b9a81613770565b9050919050565b60006020820190508181036000830152613bba816137b6565b9050919050565b6000602082019050613bd660008301846137e8565b92915050565b6000613be6613bf7565b9050613bf28282613e7e565b919050565b6000604051905090565b600067ffffffffffffffff821115613c1c57613c1b613f56565b5b602082029050602081019050919050565b600067ffffffffffffffff821115613c4857613c47613f56565b5b602082029050602081019050919050565b600067ffffffffffffffff821115613c7457613c73613f56565b5b613c7d82613f85565b9050602081019050919050565b6000819050602082019050919050565b6000819050602082019050919050565b6000819050602082019050919050565b600081519050919050565b600081519050919050565b600081519050919050565b600081519050919050565b6000602082019050919050565b6000602082019050919050565b6000602082019050919050565b600082825260208201905092915050565b600082825260208201905092915050565b600082825260208201905092915050565b600082825260208201905092915050565b600082825260208201905092915050565b6000613d6d82613e00565b9150613d7883613e00565b9250827fffffffffffffffffffffffffffffffffffffffffffffffffffffffffffffffff03821115613dad57613dac613ef8565b5b828201905092915050565b6000613dc382613de0565b9050919050565b60008115159050919050565b6000819050919050565b600073ffffffffffffffffffffffffffffffffffffffff82169050919050565b6000819050919050565b82818337600083830152505050565b60005b83811015613e37578082015181840152602081019050613e1c565b83811115613e46576000848401525b50505050565b60006002820490506001821680613e6457607f821691505b60208210811415613e7857613e77613f27565b5b50919050565b613e8782613f85565b810181811067ffffffffffffffff82111715613ea657613ea5613f56565b5b80604052505050565b6000613eba82613e00565b91507fffffffffffffffffffffffffffffffffffffffffffffffffffffffffffffffff821415613eed57613eec613ef8565b5b600182019050919050565b7f4e487b7100000000000000000000000000000000000000000000000000000000600052601160045260246000fd5b7f4e487b7100000000000000000000000000000000000000000000000000000000600052602260045260246000fd5b7f4e487b7100000000000000000000000000000000000000000000000000000000600052604160045260246000fd5b6000601f19601f8301169050919050565b7f5061757361626c653a206e6f7420706175736564000000000000000000000000600082015250565b7f4f6e6c7920617661696c61626c6520616674657220656c656374696f6e20737460008201527f6172747300000000000000000000000000000000000000000000000000000000602082015250565b7f5445414348455200000000000000000000000000000000000000000000000000600082015250565b7f416c726561647920766f7465642e000000000000000000000000000000000000600082015250565b7f506c65617365207265676973746572206174206c65617374206f6e6520636f6e60008201527f74657374616e7400000000000000000000000000000000000000000000000000602082015250565b7f5061757361626c653a2070617573656400000000000000000000000000000000600082015250565b7f426f617264204d656d62657220616c7265616479207265676973746572656400600082015250565b7f4172726179206c656e67746873206d757374206d617463682100000000000000600082015250565b7f6e6f7420617574686f72697a6564000000000000000000000000000000000000600082015250565b7f436f6e74657374616e74206e6f74207265676973746572656421000000000000600082015250565b7f53747564656e7420616c72656164792072656769737465726564000000000000600082015250565b7f4e6f7420656c696769626c6520746f20766f74652c20706c656173652072656760008201527f6973746572000000000000000000000000000000000000000000000000000000602082015250565b7f424f415244204d454d4245520000000000000000000000000000000000000000600082015250565b7f456c656374696f6e2068617320616c7265616479207374617274656400000000600082015250565b7f5465616368657220616c72656164792072656769737465726564000000000000600082015250565b7f53545544454e5400000000000000000000000000000000000000000000000000600082015250565b7f5761697420666f7220656c656374696f6e20746f207374617274000000000000600082015250565b6142ca81613db8565b81146142d557600080fd5b50565b6142e181613dd6565b81146142ec57600080fd5b50565b6142f881613e00565b811461430357600080fd5b5056fea26469706673582212202a2ac71521f3502b62ec2f329d927ac77685b0a3a6d3f3c1dde860f8df5dc29064736f6c63430008040033",
  "linkReferences": {},
  "deployedLinkReferences": {}
}