{
  "_format": "hh-sol-artifact-1",
  "contractName": "ShardDAO",
  "sourceName": "contracts/ShardDAO.sol",
  "abi": [
    {
      "inputs": [
        {
          "internalType": "string",
          "name": "_nameOfPosition",
          "type": "string"
        }
      ],
      "stateMutability": "nonpayable",
      "type": "constructor"
    },
    {
      "inputs": [],
      "name": "TooLate",
      "type": "error"
    },
    {
      "anonymous": false,
      "inputs": [
        {
          "indexed": true,
          "internalType": "bytes32",
          "name": "role",
          "type": "bytes32"
        },
        {
          "indexed": true,
          "internalType": "address",
          "name": "account",
          "type": "address"
        }
      ],
      "name": "GrantRoles",
      "type": "event"
    },
    {
      "anonymous": false,
      "inputs": [
        {
          "indexed": false,
          "internalType": "address",
          "name": "account",
          "type": "address"
        }
      ],
      "name": "Paused",
      "type": "event"
    },
    {
      "anonymous": false,
      "inputs": [
        {
          "indexed": false,
          "internalType": "address[]",
          "name": "particants",
          "type": "address[]"
        },
        {
          "indexed": false,
          "internalType": "string",
          "name": "assignedRole",
          "type": "string"
        },
        {
          "indexed": false,
          "internalType": "uint256",
          "name": "registeredAt",
          "type": "uint256"
        }
      ],
      "name": "Register",
      "type": "event"
    },
    {
      "anonymous": false,
      "inputs": [
        {
          "indexed": true,
          "internalType": "bytes32",
          "name": "role",
          "type": "bytes32"
        },
        {
          "indexed": true,
          "internalType": "address",
          "name": "account",
          "type": "address"
        }
      ],
      "name": "RemoveRoles",
      "type": "event"
    },
    {
      "anonymous": false,
      "inputs": [
        {
          "indexed": false,
          "internalType": "address",
          "name": "account",
          "type": "address"
        }
      ],
      "name": "Unpaused",
      "type": "event"
    },
    {
      "anonymous": false,
      "inputs": [
        {
          "indexed": false,
          "internalType": "address",
          "name": "voter",
          "type": "address"
        },
        {
          "indexed": false,
          "internalType": "uint256",
          "name": "votedAt",
          "type": "uint256"
        }
      ],
      "name": "Voted",
      "type": "event"
    },
    {
      "anonymous": false,
      "inputs": [
        {
          "indexed": false,
          "internalType": "string",
          "name": "electionWinner",
          "type": "string"
        },
        {
          "indexed": false,
          "internalType": "address",
          "name": "winnerAddr",
          "type": "address"
        }
      ],
      "name": "Winner",
      "type": "event"
    },
    {
      "anonymous": false,
      "inputs": [
        {
          "indexed": false,
          "internalType": "uint256",
          "name": "endTime",
          "type": "uint256"
        }
      ],
      "name": "electionEnded",
      "type": "event"
    },
    {
      "anonymous": false,
      "inputs": [
        {
          "indexed": false,
          "internalType": "uint256",
          "name": "startTime",
          "type": "uint256"
        },
        {
          "indexed": false,
          "internalType": "uint256",
          "name": "electionDuration",
          "type": "uint256"
        }
      ],
      "name": "electionStarted",
      "type": "event"
    },
    {
      "inputs": [],
      "name": "Board",
      "outputs": [
        {
          "internalType": "bytes32",
          "name": "",
          "type": "bytes32"
        }
      ],
      "stateMutability": "view",
      "type": "function"
    },
    {
      "inputs": [],
      "name": "Chairman",
      "outputs": [
        {
          "internalType": "bytes32",
          "name": "",
          "type": "bytes32"
        }
      ],
      "stateMutability": "view",
      "type": "function"
    },
    {
      "inputs": [],
      "name": "Students",
      "outputs": [
        {
          "internalType": "bytes32",
          "name": "",
          "type": "bytes32"
        }
      ],
      "stateMutability": "view",
      "type": "function"
    },
    {
      "inputs": [],
      "name": "Teachers",
      "outputs": [
        {
          "internalType": "bytes32",
          "name": "",
          "type": "bytes32"
        }
      ],
      "stateMutability": "view",
      "type": "function"
    },
    {
      "inputs": [
        {
          "internalType": "string[]",
          "name": "contestantName",
          "type": "string[]"
        },
        {
          "internalType": "address[]",
          "name": "contestantAddress",
          "type": "address[]"
        }
      ],
      "name": "addContestant",
      "outputs": [],
      "stateMutability": "nonpayable",
      "type": "function"
    },
    {
      "inputs": [],
      "name": "chairman",
      "outputs": [
        {
          "internalType": "address",
          "name": "",
          "type": "address"
        }
      ],
      "stateMutability": "view",
      "type": "function"
    },
    {
      "inputs": [
        {
          "internalType": "string",
          "name": "_nameOfPosition",
          "type": "string"
        }
      ],
      "name": "changeNameOfPosition",
      "outputs": [
        {
          "internalType": "bool",
          "name": "",
          "type": "bool"
        }
      ],
      "stateMutability": "nonpayable",
      "type": "function"
    },
    {
      "inputs": [],
      "name": "endElection",
      "outputs": [
        {
          "internalType": "string",
          "name": "",
          "type": "string"
        },
        {
          "internalType": "address",
          "name": "",
          "type": "address"
        }
      ],
      "stateMutability": "nonpayable",
      "type": "function"
    },
    {
      "inputs": [],
      "name": "getAllContestants",
      "outputs": [
        {
          "internalType": "string[]",
          "name": "",
          "type": "string[]"
        },
        {
          "internalType": "address[]",
          "name": "",
          "type": "address[]"
        },
        {
          "internalType": "uint256[]",
          "name": "",
          "type": "uint256[]"
        }
      ],
      "stateMutability": "view",
      "type": "function"
    },
    {
      "inputs": [],
      "name": "getTotalVoteCount",
      "outputs": [
        {
          "internalType": "uint256",
          "name": "",
          "type": "uint256"
        }
      ],
      "stateMutability": "view",
      "type": "function"
    },
    {
      "inputs": [
        {
          "internalType": "address",
          "name": "_address",
          "type": "address"
        }
      ],
      "name": "getUserRole",
      "outputs": [
        {
          "internalType": "string",
          "name": "",
          "type": "string"
        }
      ],
      "stateMutability": "view",
      "type": "function"
    },
    {
      "inputs": [
        {
          "internalType": "bytes32",
          "name": "_role",
          "type": "bytes32"
        },
        {
          "internalType": "address",
          "name": "_account",
          "type": "address"
        }
      ],
      "name": "grantRole",
      "outputs": [],
      "stateMutability": "nonpayable",
      "type": "function"
    },
    {
      "inputs": [
        {
          "internalType": "address",
          "name": "_address",
          "type": "address"
        }
      ],
      "name": "isBoard",
      "outputs": [
        {
          "internalType": "bool",
          "name": "",
          "type": "bool"
        }
      ],
      "stateMutability": "view",
      "type": "function"
    },
    {
      "inputs": [
        {
          "internalType": "address",
          "name": "_address",
          "type": "address"
        }
      ],
      "name": "isChairman",
      "outputs": [
        {
          "internalType": "bool",
          "name": "",
          "type": "bool"
        }
      ],
      "stateMutability": "view",
      "type": "function"
    },
    {
      "inputs": [],
      "name": "isOnging",
      "outputs": [
        {
          "internalType": "bool",
          "name": "",
          "type": "bool"
        }
      ],
      "stateMutability": "view",
      "type": "function"
    },
    {
      "inputs": [
        {
          "internalType": "address",
          "name": "_address",
          "type": "address"
        }
      ],
      "name": "isStudent",
      "outputs": [
        {
          "internalType": "bool",
          "name": "",
          "type": "bool"
        }
      ],
      "stateMutability": "view",
      "type": "function"
    },
    {
      "inputs": [
        {
          "internalType": "address",
          "name": "_address",
          "type": "address"
        }
      ],
      "name": "isTeacher",
      "outputs": [
        {
          "internalType": "bool",
          "name": "",
          "type": "bool"
        }
      ],
      "stateMutability": "view",
      "type": "function"
    },
    {
      "inputs": [],
      "name": "nameOfPosition",
      "outputs": [
        {
          "internalType": "string",
          "name": "",
          "type": "string"
        }
      ],
      "stateMutability": "view",
      "type": "function"
    },
    {
      "inputs": [
        {
          "internalType": "address",
          "name": "",
          "type": "address"
        }
      ],
      "name": "particants",
      "outputs": [
        {
          "internalType": "bool",
          "name": "voted",
          "type": "bool"
        },
        {
          "internalType": "bool",
          "name": "registered",
          "type": "bool"
        }
      ],
      "stateMutability": "view",
      "type": "function"
    },
    {
      "inputs": [],
      "name": "pause",
      "outputs": [],
      "stateMutability": "nonpayable",
      "type": "function"
    },
    {
      "inputs": [],
      "name": "paused",
      "outputs": [
        {
          "internalType": "bool",
          "name": "",
          "type": "bool"
        }
      ],
      "stateMutability": "view",
      "type": "function"
    },
    {
      "inputs": [
        {
          "internalType": "address[]",
          "name": "board_members",
          "type": "address[]"
        }
      ],
      "name": "registerBoardMember",
      "outputs": [],
      "stateMutability": "nonpayable",
      "type": "function"
    },
    {
      "inputs": [
        {
          "internalType": "address[]",
          "name": "students",
          "type": "address[]"
        }
      ],
      "name": "registerStudent",
      "outputs": [],
      "stateMutability": "nonpayable",
      "type": "function"
    },
    {
      "inputs": [
        {
          "internalType": "address[]",
          "name": "teachers",
          "type": "address[]"
        }
      ],
      "name": "registerTeacher",
      "outputs": [],
      "stateMutability": "nonpayable",
      "type": "function"
    },
    {
      "inputs": [
        {
          "internalType": "bytes32",
          "name": "_role",
          "type": "bytes32"
        },
        {
          "internalType": "address",
          "name": "_account",
          "type": "address"
        }
      ],
      "name": "removeRole",
      "outputs": [],
      "stateMutability": "nonpayable",
      "type": "function"
    },
    {
      "inputs": [
        {
          "internalType": "bytes32",
          "name": "",
          "type": "bytes32"
        },
        {
          "internalType": "address",
          "name": "",
          "type": "address"
        }
      ],
      "name": "roles",
      "outputs": [
        {
          "internalType": "bool",
          "name": "",
          "type": "bool"
        }
      ],
      "stateMutability": "view",
      "type": "function"
    },
    {
      "inputs": [
        {
          "internalType": "uint256",
          "name": "_time",
          "type": "uint256"
        }
      ],
      "name": "setVoteTime",
      "outputs": [
        {
          "internalType": "bool",
          "name": "",
          "type": "bool"
        }
      ],
      "stateMutability": "nonpayable",
      "type": "function"
    },
    {
      "inputs": [
        {
          "internalType": "uint256",
          "name": "_time",
          "type": "uint256"
        }
      ],
      "name": "startElection",
      "outputs": [],
      "stateMutability": "nonpayable",
      "type": "function"
    },
    {
      "inputs": [],
      "name": "timeToVote",
      "outputs": [
        {
          "internalType": "uint256",
          "name": "",
          "type": "uint256"
        }
      ],
      "stateMutability": "view",
      "type": "function"
    },
    {
      "inputs": [],
      "name": "unpause",
      "outputs": [],
      "stateMutability": "nonpayable",
      "type": "function"
    },
    {
      "inputs": [
        {
          "internalType": "uint256",
          "name": "_contestantId",
          "type": "uint256"
        }
      ],
      "name": "vote",
      "outputs": [],
      "stateMutability": "nonpayable",
      "type": "function"
    },
    {
      "inputs": [],
      "name": "winnerNameAndAddress",
      "outputs": [
        {
          "internalType": "string",
          "name": "winnerName_",
          "type": "string"
        },
        {
          "internalType": "address",
          "name": "winnerAddress_",
          "type": "address"
        }
      ],
      "stateMutability": "nonpayable",
      "type": "function"
    }
  ],
  "bytecode": "0x60806040523480156200001157600080fd5b506040516200518e3803806200518e83398181016040528101906200003791906200045a565b60008060006101000a81548160ff021916908315150217905550620000837f76dfba581cd3b5e02cf3469ec59636d3b2bc677066188c2346f32f81a159710033620001b360201b60201c565b80600590805190602001906200009b92919062000338565b5033600460006101000a81548173ffffffffffffffffffffffffffffffffffffffff021916908373ffffffffffffffffffffffffffffffffffffffff16021790555060405180604001604052806000151581526020016001151581525060026000600460009054906101000a900473ffffffffffffffffffffffffffffffffffffffff1673ffffffffffffffffffffffffffffffffffffffff1673ffffffffffffffffffffffffffffffffffffffff16815260200190815260200160002060008201518160000160006101000a81548160ff02191690831515021790555060208201518160000160016101000a81548160ff021916908315150217905550905050620001ac6200026360201b60201c565b50620006f4565b600180600084815260200190815260200160002060008373ffffffffffffffffffffffffffffffffffffffff1673ffffffffffffffffffffffffffffffffffffffff16815260200190815260200160002060006101000a81548160ff0219169083151502179055508073ffffffffffffffffffffffffffffffffffffffff16827f28be2ad647d19c04889746a89a2c95468f8dcd453018d6d0f2411904e90dff1360405160405180910390a35050565b620002736200031a60201b60201c565b15620002b6576040517f08c379a0000000000000000000000000000000000000000000000000000000008152600401620002ad90620004f4565b60405180910390fd5b60016000806101000a81548160ff0219169083151502179055507f62e78cea01bee320cd4e420270b5ea74000d11b0c9f74754ebdbfc544b05a258620003016200033060201b60201c565b604051620003109190620004d7565b60405180910390a1565b60008060009054906101000a900460ff16905090565b600033905090565b8280546200034690620005f0565b90600052602060002090601f0160209004810192826200036a5760008555620003b6565b82601f106200038557805160ff1916838001178555620003b6565b82800160010185558215620003b6579182015b82811115620003b557825182559160200191906001019062000398565b5b509050620003c59190620003c9565b5090565b5b80821115620003e4576000816000905550600101620003ca565b5090565b6000620003ff620003f9846200053f565b62000516565b9050828152602081018484840111156200041857600080fd5b62000425848285620005ba565b509392505050565b600082601f8301126200043f57600080fd5b815162000451848260208601620003e8565b91505092915050565b6000602082840312156200046d57600080fd5b600082015167ffffffffffffffff8111156200048857600080fd5b62000496848285016200042d565b91505092915050565b620004aa8162000586565b82525050565b6000620004bf60108362000575565b9150620004cc82620006cb565b602082019050919050565b6000602082019050620004ee60008301846200049f565b92915050565b600060208201905081810360008301526200050f81620004b0565b9050919050565b60006200052262000535565b905062000530828262000626565b919050565b6000604051905090565b600067ffffffffffffffff8211156200055d576200055c6200068b565b5b6200056882620006ba565b9050602081019050919050565b600082825260208201905092915050565b600062000593826200059a565b9050919050565b600073ffffffffffffffffffffffffffffffffffffffff82169050919050565b60005b83811015620005da578082015181840152602081019050620005bd565b83811115620005ea576000848401525b50505050565b600060028204905060018216806200060957607f821691505b6020821081141562000620576200061f6200065c565b5b50919050565b6200063182620006ba565b810181811067ffffffffffffffff821117156200065357620006526200068b565b5b80604052505050565b7f4e487b7100000000000000000000000000000000000000000000000000000000600052602260045260246000fd5b7f4e487b7100000000000000000000000000000000000000000000000000000000600052604160045260246000fd5b6000601f19601f8301169050919050565b7f5061757361626c653a2070617573656400000000000000000000000000000000600082015250565b614a8a80620007046000396000f3fe608060405234801561001057600080fd5b50600436106101f05760003560e01c806374a162bd1161010f5780639cc47719116100a2578063bc0a5b0511610071578063bc0a5b051461059c578063d70cab64146105bc578063f6ba0007146105d8578063f8fc08b9146105f4576101f0565b80639cc47719146105025780639f7dcd0f14610532578063aec37eb314610550578063b86b0c3a14610580576101f0565b806387f7b975116100de57806387f7b9751461048a5780638c93223b146104a8578063945837e2146104c65780639ca0f714146104e4576101f0565b806374a162bd14610402578063761ecf311461042057806382f7d392146104505780638456cb5914610480576101f0565b80633f4ba83a1161018757806359f784681161015657806359f784681461038b5780635c975abb146103aa5780636bbf8fea146103c85780636d32dc4b146103e6576101f0565b80633f4ba83a14610313578063481518d81461031d578063509cd3601461034e57806355d51f2f1461036c576101f0565b8063288c72e8116101c3578063288c72e81461028d5780632f2ff15d146102ab57806334b7affa146102c757806338287259146102e3576101f0565b80630121b93f146101f55780630aab6cf6146102115780631fc26a5614610241578063278208511461025d575b600080fd5b61020f600480360381019061020a9190613987565b610624565b005b61022b60048036038101906102269190613834565b6108f2565b6040516102389190613fe3565b60405180910390f35b61025b6004803603810190610256919061385d565b610979565b005b61027760048036038101906102729190613834565b610d2e565b6040516102849190614042565b60405180910390f35b61029561106e565b6040516102a29190614294565b60405180910390f35b6102c560048036038101906102c0919061390a565b611078565b005b6102e160048036038101906102dc919061389e565b611145565b005b6102fd60048036038101906102f89190613834565b61150b565b60405161030a9190613fe3565b60405180910390f35b61031b611592565b005b61033760048036038101906103329190613834565b61165b565b604051610345929190613ffe565b60405180910390f35b610356611699565b6040516103639190614027565b60405180910390f35b6103746116bd565b604051610382929190614064565b60405180910390f35b610393611a2b565b6040516103a1929190614064565b60405180910390f35b6103b2611c2d565b6040516103bf9190613fe3565b60405180910390f35b6103d0611c43565b6040516103dd9190614042565b60405180910390f35b61040060048036038101906103fb9190613987565b611cd1565b005b61040a611f0f565b6040516104179190614027565b60405180910390f35b61043a60048036038101906104359190613987565b611f33565b6040516104479190613fe3565b60405180910390f35b61046a60048036038101906104659190613834565b612125565b6040516104779190613fe3565b60405180910390f35b6104886121ac565b005b610492612275565b60405161049f9190613e8a565b60405180910390f35b6104b061229b565b6040516104bd9190613fe3565b60405180910390f35b6104ce6122ae565b6040516104db9190614294565b60405180910390f35b6104ec6122b4565b6040516104f99190614027565b60405180910390f35b61051c60048036038101906105179190613946565b6122d8565b6040516105299190613fe3565b60405180910390f35b61053a6123b9565b6040516105479190614027565b60405180910390f35b61056a60048036038101906105659190613834565b6123dd565b6040516105779190613fe3565b60405180910390f35b61059a6004803603810190610595919061385d565b612464565b005b6105a4612819565b6040516105b393929190613f97565b60405180910390f35b6105d660048036038101906105d1919061385d565b612d81565b005b6105f260048036038101906105ed919061390a565b613136565b005b61060e6004803603810190610609919061390a565b6132a6565b60405161061b9190613fe3565b60405180910390f35b61062c611c2d565b1561066c576040517f08c379a000000000000000000000000000000000000000000000000000000000815260040161066390614114565b60405180910390fd5b6000600754116106b1576040517f08c379a00000000000000000000000000000000000000000000000000000000081526004016106a890614274565b60405180910390fd5b6007546006546106c1919061445e565b42106106f9576040517fecdd1c2900000000000000000000000000000000000000000000000000000000815260040160405180910390fd5b600260003373ffffffffffffffffffffffffffffffffffffffff1673ffffffffffffffffffffffffffffffffffffffff16815260200190815260200160002060000160019054906101000a900460ff16610788576040517f08c379a000000000000000000000000000000000000000000000000000000000815260040161077f90614214565b60405180910390fd5b6000600260003373ffffffffffffffffffffffffffffffffffffffff1673ffffffffffffffffffffffffffffffffffffffff16815260200190815260200160002090508060000160009054906101000a900460ff161561081d576040517f08c379a0000000000000000000000000000000000000000000000000000000008152600401610814906140d4565b60405180910390fd5b60018160000160006101000a81548160ff021916908315150217905550600160038381548110610876577f4e487b7100000000000000000000000000000000000000000000000000000000600052603260045260246000fd5b90600052602060002090600302016002016000828254610896919061445e565b92505081905550600960008154809291906108b0906145ab565b91905055507f4d99b957a2bc29a30ebd96a7be8e68fe50a3c701db28a91436490b7d53870ca433426040516108e6929190613ea5565b60405180910390a15050565b6000600160007f440f0b4326c1ea763c9f96608623635c8105d5cc0e4b4f20a4e4fe0546b15eeb815260200190815260200160002060008373ffffffffffffffffffffffffffffffffffffffff1673ffffffffffffffffffffffffffffffffffffffff16815260200190815260200160002060009054906101000a900460ff169050919050565b600160007f76dfba581cd3b5e02cf3469ec59636d3b2bc677066188c2346f32f81a1597100815260200190815260200160002060003373ffffffffffffffffffffffffffffffffffffffff1673ffffffffffffffffffffffffffffffffffffffff16815260200190815260200160002060009054906101000a900460ff1680610a7c5750600160007f24428a7c8016b6f2b3148e1c17f4bed00ad0f5ab53b599683050e4e0aced359b815260200190815260200160002060003373ffffffffffffffffffffffffffffffffffffffff1673ffffffffffffffffffffffffffffffffffffffff16815260200190815260200160002060009054906101000a900460ff165b610abb576040517f08c379a0000000000000000000000000000000000000000000000000000000008152600401610ab2906141d4565b60405180910390fd5b60005b8151811015610cf15760026000838381518110610b04577f4e487b7100000000000000000000000000000000000000000000000000000000600052603260045260246000fd5b602002602001015173ffffffffffffffffffffffffffffffffffffffff1673ffffffffffffffffffffffffffffffffffffffff16815260200190815260200160002060000160019054906101000a900460ff1615610b97576040517f08c379a0000000000000000000000000000000000000000000000000000000008152600401610b8e906141f4565b60405180910390fd5b60405180604001604052806000151581526020016001151581525060026000848481518110610bef577f4e487b7100000000000000000000000000000000000000000000000000000000600052603260045260246000fd5b602002602001015173ffffffffffffffffffffffffffffffffffffffff1673ffffffffffffffffffffffffffffffffffffffff16815260200190815260200160002060008201518160000160006101000a81548160ff02191690831515021790555060208201518160000160016101000a81548160ff021916908315150217905550905050610cde7f6d7942b32c5633723435ccc7414ccb4e054f91ce4a595460bedf2f56bb0f5a5a838381518110610cd1577f4e487b7100000000000000000000000000000000000000000000000000000000600052603260045260246000fd5b60200260200101516132d5565b8080610ce9906145ab565b915050610abe565b507faf22aa55528a5384993a5903832252d32d097f04e58d7929ef5128fe8158556a8142604051610d23929190613f54565b60405180910390a150565b6060600160007f76dfba581cd3b5e02cf3469ec59636d3b2bc677066188c2346f32f81a1597100815260200190815260200160002060008373ffffffffffffffffffffffffffffffffffffffff1673ffffffffffffffffffffffffffffffffffffffff16815260200190815260200160002060009054906101000a900460ff1615610df0576040518060400160405280600881526020017f43686169726d616e0000000000000000000000000000000000000000000000008152509050611069565b600160007f440f0b4326c1ea763c9f96608623635c8105d5cc0e4b4f20a4e4fe0546b15eeb815260200190815260200160002060008373ffffffffffffffffffffffffffffffffffffffff1673ffffffffffffffffffffffffffffffffffffffff16815260200190815260200160002060009054906101000a900460ff1615610eb0576040518060400160405280600581526020017f426f6172640000000000000000000000000000000000000000000000000000008152509050611069565b600160007f24428a7c8016b6f2b3148e1c17f4bed00ad0f5ab53b599683050e4e0aced359b815260200190815260200160002060008373ffffffffffffffffffffffffffffffffffffffff1673ffffffffffffffffffffffffffffffffffffffff16815260200190815260200160002060009054906101000a900460ff1615610f70576040518060400160405280600881526020017f54656163686572730000000000000000000000000000000000000000000000008152509050611069565b600160007f6d7942b32c5633723435ccc7414ccb4e054f91ce4a595460bedf2f56bb0f5a5a815260200190815260200160002060008373ffffffffffffffffffffffffffffffffffffffff1673ffffffffffffffffffffffffffffffffffffffff16815260200190815260200160002060009054906101000a900460ff1615611030576040518060400160405280600881526020017f53747564656e74730000000000000000000000000000000000000000000000008152509050611069565b6040518060400160405280600e81526020017f6e6f74207265676973746572656400000000000000000000000000000000000081525090505b919050565b6000600954905090565b7f76dfba581cd3b5e02cf3469ec59636d3b2bc677066188c2346f32f81a15971006001600082815260200190815260200160002060003373ffffffffffffffffffffffffffffffffffffffff1673ffffffffffffffffffffffffffffffffffffffff16815260200190815260200160002060009054906101000a900460ff16611136576040517f08c379a000000000000000000000000000000000000000000000000000000000815260040161112d90614194565b60405180910390fd5b61114083836132d5565b505050565b600160007f76dfba581cd3b5e02cf3469ec59636d3b2bc677066188c2346f32f81a1597100815260200190815260200160002060003373ffffffffffffffffffffffffffffffffffffffff1673ffffffffffffffffffffffffffffffffffffffff16815260200190815260200160002060009054906101000a900460ff16806112485750600160007f24428a7c8016b6f2b3148e1c17f4bed00ad0f5ab53b599683050e4e0aced359b815260200190815260200160002060003373ffffffffffffffffffffffffffffffffffffffff1673ffffffffffffffffffffffffffffffffffffffff16815260200190815260200160002060009054906101000a900460ff165b611287576040517f08c379a000000000000000000000000000000000000000000000000000000000815260040161127e906141d4565b60405180910390fd5b80518251146112cb576040517f08c379a00000000000000000000000000000000000000000000000000000000081526004016112c290614174565b60405180910390fd5b60005b82518110156115065760026000838381518110611314577f4e487b7100000000000000000000000000000000000000000000000000000000600052603260045260246000fd5b602002602001015173ffffffffffffffffffffffffffffffffffffffff1673ffffffffffffffffffffffffffffffffffffffff16815260200190815260200160002060000160019054906101000a900460ff166113a6576040517f08c379a000000000000000000000000000000000000000000000000000000000815260040161139d906141b4565b60405180910390fd5b600360405180606001604052808584815181106113ec577f4e487b7100000000000000000000000000000000000000000000000000000000600052603260045260246000fd5b60200260200101518152602001848481518110611432577f4e487b7100000000000000000000000000000000000000000000000000000000600052603260045260246000fd5b602002602001015173ffffffffffffffffffffffffffffffffffffffff16815260200160008152509080600181540180825580915050600190039060005260206000209060030201600090919091909150600082015181600001908051906020019061149f9291906135a4565b5060208201518160010160006101000a81548173ffffffffffffffffffffffffffffffffffffffff021916908373ffffffffffffffffffffffffffffffffffffffff16021790555060408201518160020155505080806114fe906145ab565b9150506112ce565b505050565b6000600160007f76dfba581cd3b5e02cf3469ec59636d3b2bc677066188c2346f32f81a1597100815260200190815260200160002060008373ffffffffffffffffffffffffffffffffffffffff1673ffffffffffffffffffffffffffffffffffffffff16815260200190815260200160002060009054906101000a900460ff169050919050565b7f76dfba581cd3b5e02cf3469ec59636d3b2bc677066188c2346f32f81a15971006001600082815260200190815260200160002060003373ffffffffffffffffffffffffffffffffffffffff1673ffffffffffffffffffffffffffffffffffffffff16815260200190815260200160002060009054906101000a900460ff16611650576040517f08c379a000000000000000000000000000000000000000000000000000000000815260040161164790614194565b60405180910390fd5b611658613385565b50565b60026020528060005260406000206000915090508060000160009054906101000a900460ff16908060000160019054906101000a900460ff16905082565b7f440f0b4326c1ea763c9f96608623635c8105d5cc0e4b4f20a4e4fe0546b15eeb81565b60606000600160007f76dfba581cd3b5e02cf3469ec59636d3b2bc677066188c2346f32f81a1597100815260200190815260200160002060003373ffffffffffffffffffffffffffffffffffffffff1673ffffffffffffffffffffffffffffffffffffffff16815260200190815260200160002060009054906101000a900460ff16806117c45750600160007f24428a7c8016b6f2b3148e1c17f4bed00ad0f5ab53b599683050e4e0aced359b815260200190815260200160002060003373ffffffffffffffffffffffffffffffffffffffff1673ffffffffffffffffffffffffffffffffffffffff16815260200190815260200160002060009054906101000a900460ff165b611803576040517f08c379a00000000000000000000000000000000000000000000000000000000081526004016117fa906141d4565b60405180910390fd5b600754600654611813919061445e565b421015611855576040517f08c379a000000000000000000000000000000000000000000000000000000000815260040161184c90614134565b60405180910390fd5b61185d611c2d565b1561189d576040517f08c379a000000000000000000000000000000000000000000000000000000000815260040161189490614114565b60405180910390fd5b60006118a7613426565b9050600381815481106118e3577f4e487b7100000000000000000000000000000000000000000000000000000000600052603260045260246000fd5b906000526020600020906003020160000180546118ff90614548565b80601f016020809104026020016040519081016040528092919081815260200182805461192b90614548565b80156119785780601f1061194d57610100808354040283529160200191611978565b820191906000526020600020905b81548152906001019060200180831161195b57829003601f168201915b50505050509250600381815481106119b9577f4e487b7100000000000000000000000000000000000000000000000000000000600052603260045260246000fd5b906000526020600020906003020160010160009054906101000a900473ffffffffffffffffffffffffffffffffffffffff1691507f0c91e62421a5d60ec85bf3bf85321d08bf30b4ed466d95e663e839bb13bb1f958383604051611a1e929190614064565b60405180910390a1509091565b60606000600160007f76dfba581cd3b5e02cf3469ec59636d3b2bc677066188c2346f32f81a1597100815260200190815260200160002060003373ffffffffffffffffffffffffffffffffffffffff1673ffffffffffffffffffffffffffffffffffffffff16815260200190815260200160002060009054906101000a900460ff1680611b325750600160007f24428a7c8016b6f2b3148e1c17f4bed00ad0f5ab53b599683050e4e0aced359b815260200190815260200160002060003373ffffffffffffffffffffffffffffffffffffffff1673ffffffffffffffffffffffffffffffffffffffff16815260200190815260200160002060009054906101000a900460ff165b611b71576040517f08c379a0000000000000000000000000000000000000000000000000000000008152600401611b68906141d4565b60405180910390fd5b600754600654611b81919061445e565b421015611bc3576040517f08c379a0000000000000000000000000000000000000000000000000000000008152600401611bba90614134565b60405180910390fd5b6000600860006101000a81548160ff02191690831515021790555060006007819055507f1583d71714d3978d37ca9e35a0185dfa06c93169d0dd807262e0fcfacb0029d142604051611c159190614294565b60405180910390a1611c256116bd565b915091509091565b60008060009054906101000a900460ff16905090565b60058054611c5090614548565b80601f0160208091040260200160405190810160405280929190818152602001828054611c7c90614548565b8015611cc95780601f10611c9e57610100808354040283529160200191611cc9565b820191906000526020600020905b815481529060010190602001808311611cac57829003601f168201915b505050505081565b600160007f76dfba581cd3b5e02cf3469ec59636d3b2bc677066188c2346f32f81a1597100815260200190815260200160002060003373ffffffffffffffffffffffffffffffffffffffff1673ffffffffffffffffffffffffffffffffffffffff16815260200190815260200160002060009054906101000a900460ff1680611dd45750600160007f24428a7c8016b6f2b3148e1c17f4bed00ad0f5ab53b599683050e4e0aced359b815260200190815260200160002060003373ffffffffffffffffffffffffffffffffffffffff1673ffffffffffffffffffffffffffffffffffffffff16815260200190815260200160002060009054906101000a900460ff165b611e13576040517f08c379a0000000000000000000000000000000000000000000000000000000008152600401611e0a906141d4565b60405180910390fd5b600060075414611e58576040517f08c379a0000000000000000000000000000000000000000000000000000000008152600401611e4f90614234565b60405180910390fd5b600060038054905011611ea0576040517f08c379a0000000000000000000000000000000000000000000000000000000008152600401611e97906140f4565b60405180910390fd5b42600681905550806007819055506001600860006101000a81548160ff021916908315150217905550611ed1613385565b7fe9ab76eabe4ca873e8bd6bb33d693d6e81e2bac41661281d7b979d85d03a775860065482604051611f049291906142af565b60405180910390a150565b7f24428a7c8016b6f2b3148e1c17f4bed00ad0f5ab53b599683050e4e0aced359b81565b6000600160007f76dfba581cd3b5e02cf3469ec59636d3b2bc677066188c2346f32f81a1597100815260200190815260200160002060003373ffffffffffffffffffffffffffffffffffffffff1673ffffffffffffffffffffffffffffffffffffffff16815260200190815260200160002060009054906101000a900460ff16806120385750600160007f24428a7c8016b6f2b3148e1c17f4bed00ad0f5ab53b599683050e4e0aced359b815260200190815260200160002060003373ffffffffffffffffffffffffffffffffffffffff1673ffffffffffffffffffffffffffffffffffffffff16815260200190815260200160002060009054906101000a900460ff165b612077576040517f08c379a000000000000000000000000000000000000000000000000000000000815260040161206e906141d4565b60405180910390fd5b600754600654612087919061445e565b4210156120c9576040517f08c379a00000000000000000000000000000000000000000000000000000000081526004016120c090614134565b60405180910390fd5b60006007541161210e576040517f08c379a0000000000000000000000000000000000000000000000000000000008152600401612105906140b4565b60405180910390fd5b426006819055508160078190555060019050919050565b6000600160007f6d7942b32c5633723435ccc7414ccb4e054f91ce4a595460bedf2f56bb0f5a5a815260200190815260200160002060008373ffffffffffffffffffffffffffffffffffffffff1673ffffffffffffffffffffffffffffffffffffffff16815260200190815260200160002060009054906101000a900460ff169050919050565b7f76dfba581cd3b5e02cf3469ec59636d3b2bc677066188c2346f32f81a15971006001600082815260200190815260200160002060003373ffffffffffffffffffffffffffffffffffffffff1673ffffffffffffffffffffffffffffffffffffffff16815260200190815260200160002060009054906101000a900460ff1661226a576040517f08c379a000000000000000000000000000000000000000000000000000000000815260040161226190614194565b60405180910390fd5b6122726134fa565b50565b600460009054906101000a900473ffffffffffffffffffffffffffffffffffffffff1681565b600860009054906101000a900460ff1681565b60075481565b7f6d7942b32c5633723435ccc7414ccb4e054f91ce4a595460bedf2f56bb0f5a5a81565b60007f76dfba581cd3b5e02cf3469ec59636d3b2bc677066188c2346f32f81a15971006001600082815260200190815260200160002060003373ffffffffffffffffffffffffffffffffffffffff1673ffffffffffffffffffffffffffffffffffffffff16815260200190815260200160002060009054906101000a900460ff16612398576040517f08c379a000000000000000000000000000000000000000000000000000000000815260040161238f90614194565b60405180910390fd5b82600590805190602001906123ae9291906135a4565b506001915050919050565b7f76dfba581cd3b5e02cf3469ec59636d3b2bc677066188c2346f32f81a159710081565b6000600160007f24428a7c8016b6f2b3148e1c17f4bed00ad0f5ab53b599683050e4e0aced359b815260200190815260200160002060008373ffffffffffffffffffffffffffffffffffffffff1673ffffffffffffffffffffffffffffffffffffffff16815260200190815260200160002060009054906101000a900460ff169050919050565b600160007f76dfba581cd3b5e02cf3469ec59636d3b2bc677066188c2346f32f81a1597100815260200190815260200160002060003373ffffffffffffffffffffffffffffffffffffffff1673ffffffffffffffffffffffffffffffffffffffff16815260200190815260200160002060009054906101000a900460ff16806125675750600160007f24428a7c8016b6f2b3148e1c17f4bed00ad0f5ab53b599683050e4e0aced359b815260200190815260200160002060003373ffffffffffffffffffffffffffffffffffffffff1673ffffffffffffffffffffffffffffffffffffffff16815260200190815260200160002060009054906101000a900460ff165b6125a6576040517f08c379a000000000000000000000000000000000000000000000000000000000815260040161259d906141d4565b60405180910390fd5b60005b81518110156127dc57600260008383815181106125ef577f4e487b7100000000000000000000000000000000000000000000000000000000600052603260045260246000fd5b602002602001015173ffffffffffffffffffffffffffffffffffffffff1673ffffffffffffffffffffffffffffffffffffffff16815260200190815260200160002060000160019054906101000a900460ff1615612682576040517f08c379a000000000000000000000000000000000000000000000000000000000815260040161267990614254565b60405180910390fd5b604051806040016040528060001515815260200160011515815250600260008484815181106126da577f4e487b7100000000000000000000000000000000000000000000000000000000600052603260045260246000fd5b602002602001015173ffffffffffffffffffffffffffffffffffffffff1673ffffffffffffffffffffffffffffffffffffffff16815260200190815260200160002060008201518160000160006101000a81548160ff02191690831515021790555060208201518160000160016101000a81548160ff0219169083151502179055509050506127c97f24428a7c8016b6f2b3148e1c17f4bed00ad0f5ab53b599683050e4e0aced359b8383815181106127bc577f4e487b7100000000000000000000000000000000000000000000000000000000600052603260045260246000fd5b60200260200101516132d5565b80806127d4906145ab565b9150506125a9565b507faf22aa55528a5384993a5903832252d32d097f04e58d7929ef5128fe8158556a814260405161280e929190613ece565b60405180910390a150565b6060806060600160007f76dfba581cd3b5e02cf3469ec59636d3b2bc677066188c2346f32f81a1597100815260200190815260200160002060003373ffffffffffffffffffffffffffffffffffffffff1673ffffffffffffffffffffffffffffffffffffffff16815260200190815260200160002060009054906101000a900460ff16806129215750600160007f24428a7c8016b6f2b3148e1c17f4bed00ad0f5ab53b599683050e4e0aced359b815260200190815260200160002060003373ffffffffffffffffffffffffffffffffffffffff1673ffffffffffffffffffffffffffffffffffffffff16815260200190815260200160002060009054906101000a900460ff165b612960576040517f08c379a0000000000000000000000000000000000000000000000000000000008152600401612957906141d4565b60405180910390fd5b6000600380549050905060008167ffffffffffffffff8111156129ac577f4e487b7100000000000000000000000000000000000000000000000000000000600052604160045260246000fd5b6040519080825280602002602001820160405280156129df57816020015b60608152602001906001900390816129ca5790505b50905060008267ffffffffffffffff811115612a24577f4e487b7100000000000000000000000000000000000000000000000000000000600052604160045260246000fd5b604051908082528060200260200182016040528015612a525781602001602082028036833780820191505090505b50905060008367ffffffffffffffff811115612a97577f4e487b7100000000000000000000000000000000000000000000000000000000600052604160045260246000fd5b604051908082528060200260200182016040528015612ac55781602001602082028036833780820191505090505b50905060005b84811015612d6e5760038181548110612b0d577f4e487b7100000000000000000000000000000000000000000000000000000000600052603260045260246000fd5b90600052602060002090600302016000018054612b2990614548565b80601f0160208091040260200160405190810160405280929190818152602001828054612b5590614548565b8015612ba25780601f10612b7757610100808354040283529160200191612ba2565b820191906000526020600020905b815481529060010190602001808311612b8557829003601f168201915b5050505050848281518110612be0577f4e487b7100000000000000000000000000000000000000000000000000000000600052603260045260246000fd5b602002602001018190525060038181548110612c25577f4e487b7100000000000000000000000000000000000000000000000000000000600052603260045260246000fd5b906000526020600020906003020160010160009054906101000a900473ffffffffffffffffffffffffffffffffffffffff16838281518110612c90577f4e487b7100000000000000000000000000000000000000000000000000000000600052603260045260246000fd5b602002602001019073ffffffffffffffffffffffffffffffffffffffff16908173ffffffffffffffffffffffffffffffffffffffff168152505060038181548110612d04577f4e487b7100000000000000000000000000000000000000000000000000000000600052603260045260246000fd5b906000526020600020906003020160020154828281518110612d4f577f4e487b7100000000000000000000000000000000000000000000000000000000600052603260045260246000fd5b6020026020010181815250508080612d66906145ab565b915050612acb565b5082828296509650965050505050909192565b600160007f76dfba581cd3b5e02cf3469ec59636d3b2bc677066188c2346f32f81a1597100815260200190815260200160002060003373ffffffffffffffffffffffffffffffffffffffff1673ffffffffffffffffffffffffffffffffffffffff16815260200190815260200160002060009054906101000a900460ff1680612e845750600160007f24428a7c8016b6f2b3148e1c17f4bed00ad0f5ab53b599683050e4e0aced359b815260200190815260200160002060003373ffffffffffffffffffffffffffffffffffffffff1673ffffffffffffffffffffffffffffffffffffffff16815260200190815260200160002060009054906101000a900460ff165b612ec3576040517f08c379a0000000000000000000000000000000000000000000000000000000008152600401612eba906141d4565b60405180910390fd5b60005b81518110156130f95760026000838381518110612f0c577f4e487b7100000000000000000000000000000000000000000000000000000000600052603260045260246000fd5b602002602001015173ffffffffffffffffffffffffffffffffffffffff1673ffffffffffffffffffffffffffffffffffffffff16815260200190815260200160002060000160019054906101000a900460ff1615612f9f576040517f08c379a0000000000000000000000000000000000000000000000000000000008152600401612f9690614154565b60405180910390fd5b60405180604001604052806000151581526020016001151581525060026000848481518110612ff7577f4e487b7100000000000000000000000000000000000000000000000000000000600052603260045260246000fd5b602002602001015173ffffffffffffffffffffffffffffffffffffffff1673ffffffffffffffffffffffffffffffffffffffff16815260200190815260200160002060008201518160000160006101000a81548160ff02191690831515021790555060208201518160000160016101000a81548160ff0219169083151502179055509050506130e67f440f0b4326c1ea763c9f96608623635c8105d5cc0e4b4f20a4e4fe0546b15eeb8383815181106130d9577f4e487b7100000000000000000000000000000000000000000000000000000000600052603260045260246000fd5b60200260200101516132d5565b80806130f1906145ab565b915050612ec6565b507faf22aa55528a5384993a5903832252d32d097f04e58d7929ef5128fe8158556a814260405161312b929190613f11565b60405180910390a150565b7f76dfba581cd3b5e02cf3469ec59636d3b2bc677066188c2346f32f81a15971006001600082815260200190815260200160002060003373ffffffffffffffffffffffffffffffffffffffff1673ffffffffffffffffffffffffffffffffffffffff16815260200190815260200160002060009054906101000a900460ff166131f4576040517f08c379a00000000000000000000000000000000000000000000000000000000081526004016131eb90614194565b60405180910390fd5b60006001600085815260200190815260200160002060008473ffffffffffffffffffffffffffffffffffffffff1673ffffffffffffffffffffffffffffffffffffffff16815260200190815260200160002060006101000a81548160ff0219169083151502179055508173ffffffffffffffffffffffffffffffffffffffff16837f69331970bf0fcdf0e1bcab5a5b121dddcd366a05701b071791a387a80fc918f460405160405180910390a3505050565b60016020528160005260406000206020528060005260406000206000915091509054906101000a900460ff1681565b600180600084815260200190815260200160002060008373ffffffffffffffffffffffffffffffffffffffff1673ffffffffffffffffffffffffffffffffffffffff16815260200190815260200160002060006101000a81548160ff0219169083151502179055508073ffffffffffffffffffffffffffffffffffffffff16827f28be2ad647d19c04889746a89a2c95468f8dcd453018d6d0f2411904e90dff1360405160405180910390a35050565b61338d611c2d565b6133cc576040517f08c379a00000000000000000000000000000000000000000000000000000000081526004016133c390614094565b60405180910390fd5b60008060006101000a81548160ff0219169083151502179055507f5db9ee0a495bf2e6ff9c91a7834c1ba4fdd244a5e8aa4e537bd38aeae4b073aa61340f61359c565b60405161341c9190613e8a565b60405180910390a1565b6000806000905060005b6003805490508110156134f5578160038281548110613478577f4e487b7100000000000000000000000000000000000000000000000000000000600052603260045260246000fd5b90600052602060002090600302016002015411156134e257600381815481106134ca577f4e487b7100000000000000000000000000000000000000000000000000000000600052603260045260246000fd5b90600052602060002090600302016002015491508092505b80806134ed906145ab565b915050613430565b505090565b613502611c2d565b15613542576040517f08c379a000000000000000000000000000000000000000000000000000000000815260040161353990614114565b60405180910390fd5b60016000806101000a81548160ff0219169083151502179055507f62e78cea01bee320cd4e420270b5ea74000d11b0c9f74754ebdbfc544b05a25861358561359c565b6040516135929190613e8a565b60405180910390a1565b600033905090565b8280546135b090614548565b90600052602060002090601f0160209004810192826135d25760008555613619565b82601f106135eb57805160ff1916838001178555613619565b82800160010185558215613619579182015b828111156136185782518255916020019190600101906135fd565b5b509050613626919061362a565b5090565b5b8082111561364357600081600090555060010161362b565b5090565b600061365a613655846142fd565b6142d8565b9050808382526020820190508285602086028201111561367957600080fd5b60005b858110156136a9578161368f8882613777565b84526020840193506020830192505060018101905061367c565b5050509392505050565b60006136c66136c184614329565b6142d8565b905080838252602082019050828560208602820111156136e557600080fd5b60005b8581101561372f57813567ffffffffffffffff81111561370757600080fd5b80860161371489826137f5565b855260208501945060208401935050506001810190506136e8565b5050509392505050565b600061374c61374784614355565b6142d8565b90508281526020810184848401111561376457600080fd5b61376f848285614506565b509392505050565b60008135905061378681614a0f565b92915050565b600082601f83011261379d57600080fd5b81356137ad848260208601613647565b91505092915050565b600082601f8301126137c757600080fd5b81356137d78482602086016136b3565b91505092915050565b6000813590506137ef81614a26565b92915050565b600082601f83011261380657600080fd5b8135613816848260208601613739565b91505092915050565b60008135905061382e81614a3d565b92915050565b60006020828403121561384657600080fd5b600061385484828501613777565b91505092915050565b60006020828403121561386f57600080fd5b600082013567ffffffffffffffff81111561388957600080fd5b6138958482850161378c565b91505092915050565b600080604083850312156138b157600080fd5b600083013567ffffffffffffffff8111156138cb57600080fd5b6138d7858286016137b6565b925050602083013567ffffffffffffffff8111156138f457600080fd5b6139008582860161378c565b9150509250929050565b6000806040838503121561391d57600080fd5b600061392b858286016137e0565b925050602061393c85828601613777565b9150509250929050565b60006020828403121561395857600080fd5b600082013567ffffffffffffffff81111561397257600080fd5b61397e848285016137f5565b91505092915050565b60006020828403121561399957600080fd5b60006139a78482850161381f565b91505092915050565b60006139bc83836139f4565b60208301905092915050565b60006139d48383613b61565b905092915050565b60006139e88383613e6c565b60208301905092915050565b6139fd816144b4565b82525050565b613a0c816144b4565b82525050565b6000613a1d826143b6565b613a278185614409565b9350613a3283614386565b8060005b83811015613a63578151613a4a88826139b0565b9750613a55836143e2565b925050600181019050613a36565b5085935050505092915050565b6000613a7b826143c1565b613a85818561441a565b935083602082028501613a9785614396565b8060005b85811015613ad35784840389528151613ab485826139c8565b9450613abf836143ef565b925060208a01995050600181019050613a9b565b50829750879550505050505092915050565b6000613af0826143cc565b613afa818561442b565b9350613b05836143a6565b8060005b83811015613b36578151613b1d88826139dc565b9750613b28836143fc565b925050600181019050613b09565b5085935050505092915050565b613b4c816144c6565b82525050565b613b5b816144d2565b82525050565b6000613b6c826143d7565b613b76818561443c565b9350613b86818560208601614515565b613b8f81614681565b840191505092915050565b6000613ba5826143d7565b613baf818561444d565b9350613bbf818560208601614515565b613bc881614681565b840191505092915050565b6000613be060148361444d565b9150613beb82614692565b602082019050919050565b6000613c0360248361444d565b9150613c0e826146bb565b604082019050919050565b6000613c2660078361444d565b9150613c318261470a565b602082019050919050565b6000613c49600e8361444d565b9150613c5482614733565b602082019050919050565b6000613c6c60278361444d565b9150613c778261475c565b604082019050919050565b6000613c8f60108361444d565b9150613c9a826147ab565b602082019050919050565b6000613cb260188361444d565b9150613cbd826147d4565b602082019050919050565b6000613cd5601f8361444d565b9150613ce0826147fd565b602082019050919050565b6000613cf860198361444d565b9150613d0382614826565b602082019050919050565b6000613d1b600e8361444d565b9150613d268261484f565b602082019050919050565b6000613d3e601a8361444d565b9150613d4982614878565b602082019050919050565b6000613d61601b8361444d565b9150613d6c826148a1565b602082019050919050565b6000613d84601a8361444d565b9150613d8f826148ca565b602082019050919050565b6000613da760258361444d565b9150613db2826148f3565b604082019050919050565b6000613dca600c8361444d565b9150613dd582614942565b602082019050919050565b6000613ded601c8361444d565b9150613df88261496b565b602082019050919050565b6000613e10601a8361444d565b9150613e1b82614994565b602082019050919050565b6000613e3360078361444d565b9150613e3e826149bd565b602082019050919050565b6000613e56601a8361444d565b9150613e61826149e6565b602082019050919050565b613e75816144fc565b82525050565b613e84816144fc565b82525050565b6000602082019050613e9f6000830184613a03565b92915050565b6000604082019050613eba6000830185613a03565b613ec76020830184613e7b565b9392505050565b60006060820190508181036000830152613ee88185613a12565b90508181036020830152613efb81613c19565b9050613f0a6040830184613e7b565b9392505050565b60006060820190508181036000830152613f2b8185613a12565b90508181036020830152613f3e81613dbd565b9050613f4d6040830184613e7b565b9392505050565b60006060820190508181036000830152613f6e8185613a12565b90508181036020830152613f8181613e26565b9050613f906040830184613e7b565b9392505050565b60006060820190508181036000830152613fb18186613a70565b90508181036020830152613fc58185613a12565b90508181036040830152613fd98184613ae5565b9050949350505050565b6000602082019050613ff86000830184613b43565b92915050565b60006040820190506140136000830185613b43565b6140206020830184613b43565b9392505050565b600060208201905061403c6000830184613b52565b92915050565b6000602082019050818103600083015261405c8184613b9a565b905092915050565b6000604082019050818103600083015261407e8185613b9a565b905061408d6020830184613a03565b9392505050565b600060208201905081810360008301526140ad81613bd3565b9050919050565b600060208201905081810360008301526140cd81613bf6565b9050919050565b600060208201905081810360008301526140ed81613c3c565b9050919050565b6000602082019050818103600083015261410d81613c5f565b9050919050565b6000602082019050818103600083015261412d81613c82565b9050919050565b6000602082019050818103600083015261414d81613ca5565b9050919050565b6000602082019050818103600083015261416d81613cc8565b9050919050565b6000602082019050818103600083015261418d81613ceb565b9050919050565b600060208201905081810360008301526141ad81613d0e565b9050919050565b600060208201905081810360008301526141cd81613d31565b9050919050565b600060208201905081810360008301526141ed81613d54565b9050919050565b6000602082019050818103600083015261420d81613d77565b9050919050565b6000602082019050818103600083015261422d81613d9a565b9050919050565b6000602082019050818103600083015261424d81613de0565b9050919050565b6000602082019050818103600083015261426d81613e03565b9050919050565b6000602082019050818103600083015261428d81613e49565b9050919050565b60006020820190506142a96000830184613e7b565b92915050565b60006040820190506142c46000830185613e7b565b6142d16020830184613e7b565b9392505050565b60006142e26142f3565b90506142ee828261457a565b919050565b6000604051905090565b600067ffffffffffffffff82111561431857614317614652565b5b602082029050602081019050919050565b600067ffffffffffffffff82111561434457614343614652565b5b602082029050602081019050919050565b600067ffffffffffffffff8211156143705761436f614652565b5b61437982614681565b9050602081019050919050565b6000819050602082019050919050565b6000819050602082019050919050565b6000819050602082019050919050565b600081519050919050565b600081519050919050565b600081519050919050565b600081519050919050565b6000602082019050919050565b6000602082019050919050565b6000602082019050919050565b600082825260208201905092915050565b600082825260208201905092915050565b600082825260208201905092915050565b600082825260208201905092915050565b600082825260208201905092915050565b6000614469826144fc565b9150614474836144fc565b9250827fffffffffffffffffffffffffffffffffffffffffffffffffffffffffffffffff038211156144a9576144a86145f4565b5b828201905092915050565b60006144bf826144dc565b9050919050565b60008115159050919050565b6000819050919050565b600073ffffffffffffffffffffffffffffffffffffffff82169050919050565b6000819050919050565b82818337600083830152505050565b60005b83811015614533578082015181840152602081019050614518565b83811115614542576000848401525b50505050565b6000600282049050600182168061456057607f821691505b6020821081141561457457614573614623565b5b50919050565b61458382614681565b810181811067ffffffffffffffff821117156145a2576145a1614652565b5b80604052505050565b60006145b6826144fc565b91507fffffffffffffffffffffffffffffffffffffffffffffffffffffffffffffffff8214156145e9576145e86145f4565b5b600182019050919050565b7f4e487b7100000000000000000000000000000000000000000000000000000000600052601160045260246000fd5b7f4e487b7100000000000000000000000000000000000000000000000000000000600052602260045260246000fd5b7f4e487b7100000000000000000000000000000000000000000000000000000000600052604160045260246000fd5b6000601f19601f8301169050919050565b7f5061757361626c653a206e6f7420706175736564000000000000000000000000600082015250565b7f4f6e6c7920617661696c61626c6520616674657220656c656374696f6e20737460008201527f6172747300000000000000000000000000000000000000000000000000000000602082015250565b7f5445414348455200000000000000000000000000000000000000000000000000600082015250565b7f416c726561647920766f7465642e000000000000000000000000000000000000600082015250565b7f506c65617365207265676973746572206174206c65617374206f6e6520636f6e60008201527f74657374616e7400000000000000000000000000000000000000000000000000602082015250565b7f5061757361626c653a2070617573656400000000000000000000000000000000600082015250565b7f5761697420666f7220656c656374696f6e20746f20656e640000000000000000600082015250565b7f426f617264204d656d62657220616c7265616479207265676973746572656400600082015250565b7f4172726179206c656e67746873206d757374206d617463682100000000000000600082015250565b7f6e6f7420617574686f72697a6564000000000000000000000000000000000000600082015250565b7f436f6e74657374616e74206e6f74207265676973746572656421000000000000600082015250565b7f4d7573742062652054656163686572206f722043686169726d616e0000000000600082015250565b7f53747564656e7420616c72656164792072656769737465726564000000000000600082015250565b7f4e6f7420656c696769626c6520746f20766f74652c20706c656173652072656760008201527f6973746572000000000000000000000000000000000000000000000000000000602082015250565b7f424f415244204d454d4245520000000000000000000000000000000000000000600082015250565b7f456c656374696f6e2068617320616c7265616479207374617274656400000000600082015250565b7f5465616368657220616c72656164792072656769737465726564000000000000600082015250565b7f53545544454e5400000000000000000000000000000000000000000000000000600082015250565b7f5761697420666f7220656c656374696f6e20746f207374617274000000000000600082015250565b614a18816144b4565b8114614a2357600080fd5b50565b614a2f816144d2565b8114614a3a57600080fd5b50565b614a46816144fc565b8114614a5157600080fd5b5056fea264697066735822122004d5076f74b598ff1d1137358912e14237ddeb835295983fe25cbf3c0e55904f64736f6c63430008040033",
  "linkReferences": {},
  "deployedLinkReferences": {}
}