{
  "_format": "hh-sol-artifact-1",
  "contractName": "ShardDAO",
  "sourceName": "contracts/ShardDAO.sol",
  "abi": [
    {
      "inputs": [
        {
          "internalType": "string",
          "name": "_nameOfPosition",
          "type": "string"
        }
      ],
      "stateMutability": "nonpayable",
      "type": "constructor"
    },
    {
      "inputs": [],
      "name": "TooLate",
      "type": "error"
    },
    {
      "anonymous": false,
      "inputs": [
        {
          "indexed": true,
          "internalType": "bytes32",
          "name": "role",
          "type": "bytes32"
        },
        {
          "indexed": true,
          "internalType": "address",
          "name": "account",
          "type": "address"
        }
      ],
      "name": "GrantRoles",
      "type": "event"
    },
    {
      "anonymous": false,
      "inputs": [
        {
          "indexed": false,
          "internalType": "address",
          "name": "account",
          "type": "address"
        }
      ],
      "name": "Paused",
      "type": "event"
    },
    {
      "anonymous": false,
      "inputs": [
        {
          "indexed": false,
          "internalType": "address[]",
          "name": "particants",
          "type": "address[]"
        },
        {
          "indexed": false,
          "internalType": "string",
          "name": "assignedRole",
          "type": "string"
        },
        {
          "indexed": false,
          "internalType": "uint256",
          "name": "registeredAt",
          "type": "uint256"
        }
      ],
      "name": "Register",
      "type": "event"
    },
    {
      "anonymous": false,
      "inputs": [
        {
          "indexed": true,
          "internalType": "bytes32",
          "name": "role",
          "type": "bytes32"
        },
        {
          "indexed": true,
          "internalType": "address",
          "name": "account",
          "type": "address"
        }
      ],
      "name": "RemoveRoles",
      "type": "event"
    },
    {
      "anonymous": false,
      "inputs": [
        {
          "indexed": false,
          "internalType": "address",
          "name": "account",
          "type": "address"
        }
      ],
      "name": "Unpaused",
      "type": "event"
    },
    {
      "anonymous": false,
      "inputs": [
        {
          "indexed": false,
          "internalType": "address",
          "name": "voter",
          "type": "address"
        },
        {
          "indexed": false,
          "internalType": "uint256",
          "name": "votedAt",
          "type": "uint256"
        }
      ],
      "name": "Voted",
      "type": "event"
    },
    {
      "inputs": [],
      "name": "Board",
      "outputs": [
        {
          "internalType": "bytes32",
          "name": "",
          "type": "bytes32"
        }
      ],
      "stateMutability": "view",
      "type": "function"
    },
    {
      "inputs": [],
      "name": "Chairman",
      "outputs": [
        {
          "internalType": "bytes32",
          "name": "",
          "type": "bytes32"
        }
      ],
      "stateMutability": "view",
      "type": "function"
    },
    {
      "inputs": [],
      "name": "Students",
      "outputs": [
        {
          "internalType": "bytes32",
          "name": "",
          "type": "bytes32"
        }
      ],
      "stateMutability": "view",
      "type": "function"
    },
    {
      "inputs": [],
      "name": "Teachers",
      "outputs": [
        {
          "internalType": "bytes32",
          "name": "",
          "type": "bytes32"
        }
      ],
      "stateMutability": "view",
      "type": "function"
    },
    {
      "inputs": [
        {
          "internalType": "string[]",
          "name": "contestantName",
          "type": "string[]"
        },
        {
          "internalType": "address[]",
          "name": "contestantAddress",
          "type": "address[]"
        }
      ],
      "name": "addContestant",
      "outputs": [],
      "stateMutability": "nonpayable",
      "type": "function"
    },
    {
      "inputs": [],
      "name": "chairman",
      "outputs": [
        {
          "internalType": "address",
          "name": "",
          "type": "address"
        }
      ],
      "stateMutability": "view",
      "type": "function"
    },
    {
      "inputs": [
        {
          "internalType": "string",
          "name": "_nameOfPosition",
          "type": "string"
        }
      ],
      "name": "changeNameOfPosition",
      "outputs": [
        {
          "internalType": "bool",
          "name": "",
          "type": "bool"
        }
      ],
      "stateMutability": "nonpayable",
      "type": "function"
    },
    {
      "inputs": [],
      "name": "getAllContestants",
      "outputs": [
        {
          "internalType": "string[]",
          "name": "",
          "type": "string[]"
        },
        {
          "internalType": "address[]",
          "name": "",
          "type": "address[]"
        },
        {
          "internalType": "uint256[]",
          "name": "",
          "type": "uint256[]"
        }
      ],
      "stateMutability": "view",
      "type": "function"
    },
    {
      "inputs": [],
      "name": "getTotalVoteCount",
      "outputs": [
        {
          "internalType": "uint256",
          "name": "",
          "type": "uint256"
        }
      ],
      "stateMutability": "view",
      "type": "function"
    },
    {
      "inputs": [
        {
          "internalType": "bytes32",
          "name": "_role",
          "type": "bytes32"
        },
        {
          "internalType": "address",
          "name": "_account",
          "type": "address"
        }
      ],
      "name": "grantRole",
      "outputs": [],
      "stateMutability": "nonpayable",
      "type": "function"
    },
    {
      "inputs": [
        {
          "internalType": "address",
          "name": "_address",
          "type": "address"
        }
      ],
      "name": "isAdminSH",
      "outputs": [
        {
          "internalType": "bool",
          "name": "",
          "type": "bool"
        }
      ],
      "stateMutability": "view",
      "type": "function"
    },
    {
      "inputs": [
        {
          "internalType": "address",
          "name": "_address",
          "type": "address"
        }
      ],
      "name": "isBoard",
      "outputs": [
        {
          "internalType": "bool",
          "name": "",
          "type": "bool"
        }
      ],
      "stateMutability": "view",
      "type": "function"
    },
    {
      "inputs": [
        {
          "internalType": "address",
          "name": "_address",
          "type": "address"
        }
      ],
      "name": "isChairman",
      "outputs": [
        {
          "internalType": "bool",
          "name": "",
          "type": "bool"
        }
      ],
      "stateMutability": "view",
      "type": "function"
    },
    {
      "inputs": [
        {
          "internalType": "address",
          "name": "_address",
          "type": "address"
        }
      ],
      "name": "isStudent",
      "outputs": [
        {
          "internalType": "bool",
          "name": "",
          "type": "bool"
        }
      ],
      "stateMutability": "view",
      "type": "function"
    },
    {
      "inputs": [
        {
          "internalType": "address",
          "name": "_address",
          "type": "address"
        }
      ],
      "name": "isTeacher",
      "outputs": [
        {
          "internalType": "bool",
          "name": "",
          "type": "bool"
        }
      ],
      "stateMutability": "view",
      "type": "function"
    },
    {
      "inputs": [],
      "name": "nameOfPosition",
      "outputs": [
        {
          "internalType": "string",
          "name": "",
          "type": "string"
        }
      ],
      "stateMutability": "view",
      "type": "function"
    },
    {
      "inputs": [
        {
          "internalType": "address",
          "name": "",
          "type": "address"
        }
      ],
      "name": "particants",
      "outputs": [
        {
          "internalType": "bool",
          "name": "voted",
          "type": "bool"
        },
        {
          "internalType": "bool",
          "name": "registered",
          "type": "bool"
        }
      ],
      "stateMutability": "view",
      "type": "function"
    },
    {
      "inputs": [],
      "name": "pause",
      "outputs": [],
      "stateMutability": "nonpayable",
      "type": "function"
    },
    {
      "inputs": [],
      "name": "paused",
      "outputs": [
        {
          "internalType": "bool",
          "name": "",
          "type": "bool"
        }
      ],
      "stateMutability": "view",
      "type": "function"
    },
    {
      "inputs": [
        {
          "internalType": "address[]",
          "name": "board_members",
          "type": "address[]"
        }
      ],
      "name": "registerBoardMember",
      "outputs": [],
      "stateMutability": "nonpayable",
      "type": "function"
    },
    {
      "inputs": [
        {
          "internalType": "address[]",
          "name": "students",
          "type": "address[]"
        }
      ],
      "name": "registerStudent",
      "outputs": [],
      "stateMutability": "nonpayable",
      "type": "function"
    },
    {
      "inputs": [
        {
          "internalType": "address[]",
          "name": "teachers",
          "type": "address[]"
        }
      ],
      "name": "registerTeacher",
      "outputs": [],
      "stateMutability": "nonpayable",
      "type": "function"
    },
    {
      "inputs": [
        {
          "internalType": "bytes32",
          "name": "_role",
          "type": "bytes32"
        },
        {
          "internalType": "address",
          "name": "_account",
          "type": "address"
        }
      ],
      "name": "removeRole",
      "outputs": [],
      "stateMutability": "nonpayable",
      "type": "function"
    },
    {
      "inputs": [
        {
          "internalType": "bytes32",
          "name": "",
          "type": "bytes32"
        },
        {
          "internalType": "address",
          "name": "",
          "type": "address"
        }
      ],
      "name": "roles",
      "outputs": [
        {
          "internalType": "bool",
          "name": "",
          "type": "bool"
        }
      ],
      "stateMutability": "view",
      "type": "function"
    },
    {
      "inputs": [
        {
          "internalType": "uint256",
          "name": "_time",
          "type": "uint256"
        }
      ],
      "name": "setVoteTime",
      "outputs": [
        {
          "internalType": "bool",
          "name": "",
          "type": "bool"
        }
      ],
      "stateMutability": "nonpayable",
      "type": "function"
    },
    {
      "inputs": [
        {
          "internalType": "uint256",
          "name": "_time",
          "type": "uint256"
        }
      ],
      "name": "startElection",
      "outputs": [],
      "stateMutability": "nonpayable",
      "type": "function"
    },
    {
      "inputs": [],
      "name": "unpause",
      "outputs": [],
      "stateMutability": "nonpayable",
      "type": "function"
    },
    {
      "inputs": [
        {
          "internalType": "uint256",
          "name": "_contestantId",
          "type": "uint256"
        }
      ],
      "name": "vote",
      "outputs": [],
      "stateMutability": "nonpayable",
      "type": "function"
    },
    {
      "inputs": [],
      "name": "winnerNameAndAddress",
      "outputs": [
        {
          "internalType": "string",
          "name": "winnerName_",
          "type": "string"
        },
        {
          "internalType": "address",
          "name": "winnerAddress_",
          "type": "address"
        }
      ],
      "stateMutability": "nonpayable",
      "type": "function"
    }
  ],
  "bytecode": "0x60806040523480156200001157600080fd5b50604051620048913803806200489183398181016040528101906200003791906200045a565b60008060006101000a81548160ff021916908315150217905550620000837f76dfba581cd3b5e02cf3469ec59636d3b2bc677066188c2346f32f81a159710033620001b360201b60201c565b80600590805190602001906200009b92919062000338565b5033600460006101000a81548173ffffffffffffffffffffffffffffffffffffffff021916908373ffffffffffffffffffffffffffffffffffffffff16021790555060405180604001604052806000151581526020016001151581525060026000600460009054906101000a900473ffffffffffffffffffffffffffffffffffffffff1673ffffffffffffffffffffffffffffffffffffffff1673ffffffffffffffffffffffffffffffffffffffff16815260200190815260200160002060008201518160000160006101000a81548160ff02191690831515021790555060208201518160000160016101000a81548160ff021916908315150217905550905050620001ac6200026360201b60201c565b50620006f4565b600180600084815260200190815260200160002060008373ffffffffffffffffffffffffffffffffffffffff1673ffffffffffffffffffffffffffffffffffffffff16815260200190815260200160002060006101000a81548160ff0219169083151502179055508073ffffffffffffffffffffffffffffffffffffffff16827f28be2ad647d19c04889746a89a2c95468f8dcd453018d6d0f2411904e90dff1360405160405180910390a35050565b620002736200031a60201b60201c565b15620002b6576040517f08c379a0000000000000000000000000000000000000000000000000000000008152600401620002ad90620004f4565b60405180910390fd5b60016000806101000a81548160ff0219169083151502179055507f62e78cea01bee320cd4e420270b5ea74000d11b0c9f74754ebdbfc544b05a258620003016200033060201b60201c565b604051620003109190620004d7565b60405180910390a1565b60008060009054906101000a900460ff16905090565b600033905090565b8280546200034690620005f0565b90600052602060002090601f0160209004810192826200036a5760008555620003b6565b82601f106200038557805160ff1916838001178555620003b6565b82800160010185558215620003b6579182015b82811115620003b557825182559160200191906001019062000398565b5b509050620003c59190620003c9565b5090565b5b80821115620003e4576000816000905550600101620003ca565b5090565b6000620003ff620003f9846200053f565b62000516565b9050828152602081018484840111156200041857600080fd5b62000425848285620005ba565b509392505050565b600082601f8301126200043f57600080fd5b815162000451848260208601620003e8565b91505092915050565b6000602082840312156200046d57600080fd5b600082015167ffffffffffffffff8111156200048857600080fd5b62000496848285016200042d565b91505092915050565b620004aa8162000586565b82525050565b6000620004bf60108362000575565b9150620004cc82620006cb565b602082019050919050565b6000602082019050620004ee60008301846200049f565b92915050565b600060208201905081810360008301526200050f81620004b0565b9050919050565b60006200052262000535565b905062000530828262000626565b919050565b6000604051905090565b600067ffffffffffffffff8211156200055d576200055c6200068b565b5b6200056882620006ba565b9050602081019050919050565b600082825260208201905092915050565b600062000593826200059a565b9050919050565b600073ffffffffffffffffffffffffffffffffffffffff82169050919050565b60005b83811015620005da578082015181840152602081019050620005bd565b83811115620005ea576000848401525b50505050565b600060028204905060018216806200060957607f821691505b6020821081141562000620576200061f6200065c565b5b50919050565b6200063182620006ba565b810181811067ffffffffffffffff821117156200065357620006526200068b565b5b80604052505050565b7f4e487b7100000000000000000000000000000000000000000000000000000000600052602260045260246000fd5b7f4e487b7100000000000000000000000000000000000000000000000000000000600052604160045260246000fd5b6000601f19601f8301169050919050565b7f5061757361626c653a2070617573656400000000000000000000000000000000600082015250565b61418d80620007046000396000f3fe608060405234801561001057600080fd5b50600436106101cf5760003560e01c80636d32dc4b116101045780639cc47719116100a2578063bc0a5b0511610071578063bc0a5b0514610520578063d70cab6414610540578063f6ba00071461055c578063f8fc08b914610578576101cf565b80639cc47719146104865780639f7dcd0f146104b6578063aec37eb3146104d4578063b86b0c3a14610504576101cf565b806382f7d392116100de57806382f7d392146104105780638456cb591461044057806387f7b9751461044a5780639ca0f71414610468576101cf565b80636d32dc4b146103a657806374a162bd146103c2578063761ecf31146103e0576101cf565b80633828725911610171578063509cd3601161014b578063509cd3601461032d57806355d51f2f1461034b5780635c975abb1461036a5780636bbf8fea14610388576101cf565b806338287259146102c25780633f4ba83a146102f2578063481518d8146102fc576101cf565b80631fc26a56116101ad5780631fc26a5614610250578063288c72e81461026c5780632f2ff15d1461028a57806334b7affa146102a6576101cf565b80630121b93f146101d4578063051e0dcb146101f05780630aab6cf614610220575b600080fd5b6101ee60048036038101906101e9919061318b565b6105a8565b005b61020a60048036038101906102059190613038565b610876565b60405161021791906137a1565b60405180910390f35b61023a60048036038101906102359190613038565b610a07565b60405161024791906137a1565b60405180910390f35b61026a60048036038101906102659190613061565b610a8e565b005b610274610e0d565b6040516102819190613a12565b60405180910390f35b6102a4600480360381019061029f919061310e565b610e17565b005b6102c060048036038101906102bb91906130a2565b610ee4565b005b6102dc60048036038101906102d79190613038565b611274565b6040516102e991906137a1565b60405180910390f35b6102fa6112fb565b005b61031660048036038101906103119190613038565b6113c4565b6040516103249291906137bc565b60405180910390f35b610335611402565b60405161034291906137e5565b60405180910390f35b610353611426565b604051610361929190613822565b60405180910390f35b6103726116f7565b60405161037f91906137a1565b60405180910390f35b61039061170d565b60405161039d9190613800565b60405180910390f35b6103c060048036038101906103bb919061318b565b61179b565b005b6103ca61194d565b6040516103d791906137e5565b60405180910390f35b6103fa60048036038101906103f5919061318b565b611971565b60405161040791906137a1565b60405180910390f35b61042a60048036038101906104259190613038565b611af0565b60405161043791906137a1565b60405180910390f35b610448611b77565b005b610452611c40565b60405161045f9190613648565b60405180910390f35b610470611c66565b60405161047d91906137e5565b60405180910390f35b6104a0600480360381019061049b919061314a565b611c8a565b6040516104ad91906137a1565b60405180910390f35b6104be611d6b565b6040516104cb91906137e5565b60405180910390f35b6104ee60048036038101906104e99190613038565b611d8f565b6040516104fb91906137a1565b60405180910390f35b61051e60048036038101906105199190613061565b611e16565b005b610528612195565b60405161053793929190613755565b60405180910390f35b61055a60048036038101906105559190613061565b6125bb565b005b6105766004803603810190610571919061310e565b61293a565b005b610592600480360381019061058d919061310e565b612aaa565b60405161059f91906137a1565b60405180910390f35b6105b06116f7565b156105f0576040517f08c379a00000000000000000000000000000000000000000000000000000000081526004016105e7906138d2565b60405180910390fd5b600060075411610635576040517f08c379a000000000000000000000000000000000000000000000000000000000815260040161062c906139f2565b60405180910390fd5b6007546006546106459190613bb3565b421061067d576040517fecdd1c2900000000000000000000000000000000000000000000000000000000815260040160405180910390fd5b600260003373ffffffffffffffffffffffffffffffffffffffff1673ffffffffffffffffffffffffffffffffffffffff16815260200190815260200160002060000160019054906101000a900460ff1661070c576040517f08c379a000000000000000000000000000000000000000000000000000000000815260040161070390613992565b60405180910390fd5b6000600260003373ffffffffffffffffffffffffffffffffffffffff1673ffffffffffffffffffffffffffffffffffffffff16815260200190815260200160002090508060000160009054906101000a900460ff16156107a1576040517f08c379a000000000000000000000000000000000000000000000000000000000815260040161079890613892565b60405180910390fd5b60018160000160006101000a81548160ff0219169083151502179055506001600383815481106107fa577f4e487b7100000000000000000000000000000000000000000000000000000000600052603260045260246000fd5b9060005260206000209060030201600201600082825461081a9190613bb3565b925050819055506008600081548092919061083490613d00565b91905055507f4d99b957a2bc29a30ebd96a7be8e68fe50a3c701db28a91436490b7d53870ca4334260405161086a929190613663565b60405180910390a15050565b6000600160007f76dfba581cd3b5e02cf3469ec59636d3b2bc677066188c2346f32f81a1597100815260200190815260200160002060008373ffffffffffffffffffffffffffffffffffffffff1673ffffffffffffffffffffffffffffffffffffffff16815260200190815260200160002060009054906101000a900460ff168061097b5750600160007f440f0b4326c1ea763c9f96608623635c8105d5cc0e4b4f20a4e4fe0546b15eeb815260200190815260200160002060008373ffffffffffffffffffffffffffffffffffffffff1673ffffffffffffffffffffffffffffffffffffffff16815260200190815260200160002060009054906101000a900460ff165b80610a005750600160007f24428a7c8016b6f2b3148e1c17f4bed00ad0f5ab53b599683050e4e0aced359b815260200190815260200160002060008373ffffffffffffffffffffffffffffffffffffffff1673ffffffffffffffffffffffffffffffffffffffff16815260200190815260200160002060009054906101000a900460ff165b9050919050565b6000600160007f440f0b4326c1ea763c9f96608623635c8105d5cc0e4b4f20a4e4fe0546b15eeb815260200190815260200160002060008373ffffffffffffffffffffffffffffffffffffffff1673ffffffffffffffffffffffffffffffffffffffff16815260200190815260200160002060009054906101000a900460ff169050919050565b600160007f76dfba581cd3b5e02cf3469ec59636d3b2bc677066188c2346f32f81a1597100815260200190815260200160002060003373ffffffffffffffffffffffffffffffffffffffff1673ffffffffffffffffffffffffffffffffffffffff16815260200190815260200160002060009054906101000a900460ff1680610b915750600160007f24428a7c8016b6f2b3148e1c17f4bed00ad0f5ab53b599683050e4e0aced359b815260200190815260200160002060003373ffffffffffffffffffffffffffffffffffffffff1673ffffffffffffffffffffffffffffffffffffffff16815260200190815260200160002060009054906101000a900460ff165b610b9a57600080fd5b60005b8151811015610dd05760026000838381518110610be3577f4e487b7100000000000000000000000000000000000000000000000000000000600052603260045260246000fd5b602002602001015173ffffffffffffffffffffffffffffffffffffffff1673ffffffffffffffffffffffffffffffffffffffff16815260200190815260200160002060000160019054906101000a900460ff1615610c76576040517f08c379a0000000000000000000000000000000000000000000000000000000008152600401610c6d90613972565b60405180910390fd5b60405180604001604052806000151581526020016001151581525060026000848481518110610cce577f4e487b7100000000000000000000000000000000000000000000000000000000600052603260045260246000fd5b602002602001015173ffffffffffffffffffffffffffffffffffffffff1673ffffffffffffffffffffffffffffffffffffffff16815260200190815260200160002060008201518160000160006101000a81548160ff02191690831515021790555060208201518160000160016101000a81548160ff021916908315150217905550905050610dbd7f6d7942b32c5633723435ccc7414ccb4e054f91ce4a595460bedf2f56bb0f5a5a838381518110610db0577f4e487b7100000000000000000000000000000000000000000000000000000000600052603260045260246000fd5b6020026020010151612ad9565b8080610dc890613d00565b915050610b9d565b507faf22aa55528a5384993a5903832252d32d097f04e58d7929ef5128fe8158556a8142604051610e02929190613712565b60405180910390a150565b6000600854905090565b7f76dfba581cd3b5e02cf3469ec59636d3b2bc677066188c2346f32f81a15971006001600082815260200190815260200160002060003373ffffffffffffffffffffffffffffffffffffffff1673ffffffffffffffffffffffffffffffffffffffff16815260200190815260200160002060009054906101000a900460ff16610ed5576040517f08c379a0000000000000000000000000000000000000000000000000000000008152600401610ecc90613932565b60405180910390fd5b610edf8383612ad9565b505050565b600160007f76dfba581cd3b5e02cf3469ec59636d3b2bc677066188c2346f32f81a1597100815260200190815260200160002060003373ffffffffffffffffffffffffffffffffffffffff1673ffffffffffffffffffffffffffffffffffffffff16815260200190815260200160002060009054906101000a900460ff1680610fe75750600160007f24428a7c8016b6f2b3148e1c17f4bed00ad0f5ab53b599683050e4e0aced359b815260200190815260200160002060003373ffffffffffffffffffffffffffffffffffffffff1673ffffffffffffffffffffffffffffffffffffffff16815260200190815260200160002060009054906101000a900460ff165b610ff057600080fd5b8051825114611034576040517f08c379a000000000000000000000000000000000000000000000000000000000815260040161102b90613912565b60405180910390fd5b60005b825181101561126f576002600083838151811061107d577f4e487b7100000000000000000000000000000000000000000000000000000000600052603260045260246000fd5b602002602001015173ffffffffffffffffffffffffffffffffffffffff1673ffffffffffffffffffffffffffffffffffffffff16815260200190815260200160002060000160019054906101000a900460ff1661110f576040517f08c379a000000000000000000000000000000000000000000000000000000000815260040161110690613952565b60405180910390fd5b60036040518060600160405280858481518110611155577f4e487b7100000000000000000000000000000000000000000000000000000000600052603260045260246000fd5b6020026020010151815260200184848151811061119b577f4e487b7100000000000000000000000000000000000000000000000000000000600052603260045260246000fd5b602002602001015173ffffffffffffffffffffffffffffffffffffffff168152602001600081525090806001815401808255809150506001900390600052602060002090600302016000909190919091506000820151816000019080519060200190611208929190612da8565b5060208201518160010160006101000a81548173ffffffffffffffffffffffffffffffffffffffff021916908373ffffffffffffffffffffffffffffffffffffffff160217905550604082015181600201555050808061126790613d00565b915050611037565b505050565b6000600160007f76dfba581cd3b5e02cf3469ec59636d3b2bc677066188c2346f32f81a1597100815260200190815260200160002060008373ffffffffffffffffffffffffffffffffffffffff1673ffffffffffffffffffffffffffffffffffffffff16815260200190815260200160002060009054906101000a900460ff169050919050565b7f76dfba581cd3b5e02cf3469ec59636d3b2bc677066188c2346f32f81a15971006001600082815260200190815260200160002060003373ffffffffffffffffffffffffffffffffffffffff1673ffffffffffffffffffffffffffffffffffffffff16815260200190815260200160002060009054906101000a900460ff166113b9576040517f08c379a00000000000000000000000000000000000000000000000000000000081526004016113b090613932565b60405180910390fd5b6113c1612b89565b50565b60026020528060005260406000206000915090508060000160009054906101000a900460ff16908060000160019054906101000a900460ff16905082565b7f440f0b4326c1ea763c9f96608623635c8105d5cc0e4b4f20a4e4fe0546b15eeb81565b60606000600160007f76dfba581cd3b5e02cf3469ec59636d3b2bc677066188c2346f32f81a1597100815260200190815260200160002060003373ffffffffffffffffffffffffffffffffffffffff1673ffffffffffffffffffffffffffffffffffffffff16815260200190815260200160002060009054906101000a900460ff168061152d5750600160007f24428a7c8016b6f2b3148e1c17f4bed00ad0f5ab53b599683050e4e0aced359b815260200190815260200160002060003373ffffffffffffffffffffffffffffffffffffffff1673ffffffffffffffffffffffffffffffffffffffff16815260200190815260200160002060009054906101000a900460ff165b61153657600080fd5b6007546006546115469190613bb3565b42101561155257600080fd5b61155a6116f7565b1561159a576040517f08c379a0000000000000000000000000000000000000000000000000000000008152600401611591906138d2565b60405180910390fd5b60006115a4612c2a565b9050600381815481106115e0577f4e487b7100000000000000000000000000000000000000000000000000000000600052603260045260246000fd5b906000526020600020906003020160000180546115fc90613c9d565b80601f016020809104026020016040519081016040528092919081815260200182805461162890613c9d565b80156116755780601f1061164a57610100808354040283529160200191611675565b820191906000526020600020905b81548152906001019060200180831161165857829003601f168201915b50505050509250600381815481106116b6577f4e487b7100000000000000000000000000000000000000000000000000000000600052603260045260246000fd5b906000526020600020906003020160010160009054906101000a900473ffffffffffffffffffffffffffffffffffffffff1691506000600781905550509091565b60008060009054906101000a900460ff16905090565b6005805461171a90613c9d565b80601f016020809104026020016040519081016040528092919081815260200182805461174690613c9d565b80156117935780601f1061176857610100808354040283529160200191611793565b820191906000526020600020905b81548152906001019060200180831161177657829003601f168201915b505050505081565b600160007f76dfba581cd3b5e02cf3469ec59636d3b2bc677066188c2346f32f81a1597100815260200190815260200160002060003373ffffffffffffffffffffffffffffffffffffffff1673ffffffffffffffffffffffffffffffffffffffff16815260200190815260200160002060009054906101000a900460ff168061189e5750600160007f24428a7c8016b6f2b3148e1c17f4bed00ad0f5ab53b599683050e4e0aced359b815260200190815260200160002060003373ffffffffffffffffffffffffffffffffffffffff1673ffffffffffffffffffffffffffffffffffffffff16815260200190815260200160002060009054906101000a900460ff165b6118a757600080fd5b6000600754146118ec576040517f08c379a00000000000000000000000000000000000000000000000000000000081526004016118e3906139b2565b60405180910390fd5b600060038054905011611934576040517f08c379a000000000000000000000000000000000000000000000000000000000815260040161192b906138b2565b60405180910390fd5b426006819055508060078190555061194a612b89565b50565b7f24428a7c8016b6f2b3148e1c17f4bed00ad0f5ab53b599683050e4e0aced359b81565b6000600160007f76dfba581cd3b5e02cf3469ec59636d3b2bc677066188c2346f32f81a1597100815260200190815260200160002060003373ffffffffffffffffffffffffffffffffffffffff1673ffffffffffffffffffffffffffffffffffffffff16815260200190815260200160002060009054906101000a900460ff1680611a765750600160007f24428a7c8016b6f2b3148e1c17f4bed00ad0f5ab53b599683050e4e0aced359b815260200190815260200160002060003373ffffffffffffffffffffffffffffffffffffffff1673ffffffffffffffffffffffffffffffffffffffff16815260200190815260200160002060009054906101000a900460ff165b611a7f57600080fd5b600754600654611a8f9190613bb3565b421015611a9b57600080fd5b600060075411611ae0576040517f08c379a0000000000000000000000000000000000000000000000000000000008152600401611ad790613872565b60405180910390fd5b8160078190555060019050919050565b6000600160007f6d7942b32c5633723435ccc7414ccb4e054f91ce4a595460bedf2f56bb0f5a5a815260200190815260200160002060008373ffffffffffffffffffffffffffffffffffffffff1673ffffffffffffffffffffffffffffffffffffffff16815260200190815260200160002060009054906101000a900460ff169050919050565b7f76dfba581cd3b5e02cf3469ec59636d3b2bc677066188c2346f32f81a15971006001600082815260200190815260200160002060003373ffffffffffffffffffffffffffffffffffffffff1673ffffffffffffffffffffffffffffffffffffffff16815260200190815260200160002060009054906101000a900460ff16611c35576040517f08c379a0000000000000000000000000000000000000000000000000000000008152600401611c2c90613932565b60405180910390fd5b611c3d612cfe565b50565b600460009054906101000a900473ffffffffffffffffffffffffffffffffffffffff1681565b7f6d7942b32c5633723435ccc7414ccb4e054f91ce4a595460bedf2f56bb0f5a5a81565b60007f76dfba581cd3b5e02cf3469ec59636d3b2bc677066188c2346f32f81a15971006001600082815260200190815260200160002060003373ffffffffffffffffffffffffffffffffffffffff1673ffffffffffffffffffffffffffffffffffffffff16815260200190815260200160002060009054906101000a900460ff16611d4a576040517f08c379a0000000000000000000000000000000000000000000000000000000008152600401611d4190613932565b60405180910390fd5b8260059080519060200190611d60929190612da8565b506001915050919050565b7f76dfba581cd3b5e02cf3469ec59636d3b2bc677066188c2346f32f81a159710081565b6000600160007f24428a7c8016b6f2b3148e1c17f4bed00ad0f5ab53b599683050e4e0aced359b815260200190815260200160002060008373ffffffffffffffffffffffffffffffffffffffff1673ffffffffffffffffffffffffffffffffffffffff16815260200190815260200160002060009054906101000a900460ff169050919050565b600160007f76dfba581cd3b5e02cf3469ec59636d3b2bc677066188c2346f32f81a1597100815260200190815260200160002060003373ffffffffffffffffffffffffffffffffffffffff1673ffffffffffffffffffffffffffffffffffffffff16815260200190815260200160002060009054906101000a900460ff1680611f195750600160007f24428a7c8016b6f2b3148e1c17f4bed00ad0f5ab53b599683050e4e0aced359b815260200190815260200160002060003373ffffffffffffffffffffffffffffffffffffffff1673ffffffffffffffffffffffffffffffffffffffff16815260200190815260200160002060009054906101000a900460ff165b611f2257600080fd5b60005b81518110156121585760026000838381518110611f6b577f4e487b7100000000000000000000000000000000000000000000000000000000600052603260045260246000fd5b602002602001015173ffffffffffffffffffffffffffffffffffffffff1673ffffffffffffffffffffffffffffffffffffffff16815260200190815260200160002060000160019054906101000a900460ff1615611ffe576040517f08c379a0000000000000000000000000000000000000000000000000000000008152600401611ff5906139d2565b60405180910390fd5b60405180604001604052806000151581526020016001151581525060026000848481518110612056577f4e487b7100000000000000000000000000000000000000000000000000000000600052603260045260246000fd5b602002602001015173ffffffffffffffffffffffffffffffffffffffff1673ffffffffffffffffffffffffffffffffffffffff16815260200190815260200160002060008201518160000160006101000a81548160ff02191690831515021790555060208201518160000160016101000a81548160ff0219169083151502179055509050506121457f24428a7c8016b6f2b3148e1c17f4bed00ad0f5ab53b599683050e4e0aced359b838381518110612138577f4e487b7100000000000000000000000000000000000000000000000000000000600052603260045260246000fd5b6020026020010151612ad9565b808061215090613d00565b915050611f25565b507faf22aa55528a5384993a5903832252d32d097f04e58d7929ef5128fe8158556a814260405161218a92919061368c565b60405180910390a150565b60608060606000600380549050905060008167ffffffffffffffff8111156121e6577f4e487b7100000000000000000000000000000000000000000000000000000000600052604160045260246000fd5b60405190808252806020026020018201604052801561221957816020015b60608152602001906001900390816122045790505b50905060008267ffffffffffffffff81111561225e577f4e487b7100000000000000000000000000000000000000000000000000000000600052604160045260246000fd5b60405190808252806020026020018201604052801561228c5781602001602082028036833780820191505090505b50905060008367ffffffffffffffff8111156122d1577f4e487b7100000000000000000000000000000000000000000000000000000000600052604160045260246000fd5b6040519080825280602002602001820160405280156122ff5781602001602082028036833780820191505090505b50905060005b848110156125a85760038181548110612347577f4e487b7100000000000000000000000000000000000000000000000000000000600052603260045260246000fd5b9060005260206000209060030201600001805461236390613c9d565b80601f016020809104026020016040519081016040528092919081815260200182805461238f90613c9d565b80156123dc5780601f106123b1576101008083540402835291602001916123dc565b820191906000526020600020905b8154815290600101906020018083116123bf57829003601f168201915b505050505084828151811061241a577f4e487b7100000000000000000000000000000000000000000000000000000000600052603260045260246000fd5b60200260200101819052506003818154811061245f577f4e487b7100000000000000000000000000000000000000000000000000000000600052603260045260246000fd5b906000526020600020906003020160010160009054906101000a900473ffffffffffffffffffffffffffffffffffffffff168382815181106124ca577f4e487b7100000000000000000000000000000000000000000000000000000000600052603260045260246000fd5b602002602001019073ffffffffffffffffffffffffffffffffffffffff16908173ffffffffffffffffffffffffffffffffffffffff16815250506003818154811061253e577f4e487b7100000000000000000000000000000000000000000000000000000000600052603260045260246000fd5b906000526020600020906003020160020154828281518110612589577f4e487b7100000000000000000000000000000000000000000000000000000000600052603260045260246000fd5b60200260200101818152505080806125a090613d00565b915050612305565b5082828296509650965050505050909192565b600160007f76dfba581cd3b5e02cf3469ec59636d3b2bc677066188c2346f32f81a1597100815260200190815260200160002060003373ffffffffffffffffffffffffffffffffffffffff1673ffffffffffffffffffffffffffffffffffffffff16815260200190815260200160002060009054906101000a900460ff16806126be5750600160007f24428a7c8016b6f2b3148e1c17f4bed00ad0f5ab53b599683050e4e0aced359b815260200190815260200160002060003373ffffffffffffffffffffffffffffffffffffffff1673ffffffffffffffffffffffffffffffffffffffff16815260200190815260200160002060009054906101000a900460ff165b6126c757600080fd5b60005b81518110156128fd5760026000838381518110612710577f4e487b7100000000000000000000000000000000000000000000000000000000600052603260045260246000fd5b602002602001015173ffffffffffffffffffffffffffffffffffffffff1673ffffffffffffffffffffffffffffffffffffffff16815260200190815260200160002060000160019054906101000a900460ff16156127a3576040517f08c379a000000000000000000000000000000000000000000000000000000000815260040161279a906138f2565b60405180910390fd5b604051806040016040528060001515815260200160011515815250600260008484815181106127fb577f4e487b7100000000000000000000000000000000000000000000000000000000600052603260045260246000fd5b602002602001015173ffffffffffffffffffffffffffffffffffffffff1673ffffffffffffffffffffffffffffffffffffffff16815260200190815260200160002060008201518160000160006101000a81548160ff02191690831515021790555060208201518160000160016101000a81548160ff0219169083151502179055509050506128ea7f440f0b4326c1ea763c9f96608623635c8105d5cc0e4b4f20a4e4fe0546b15eeb8383815181106128dd577f4e487b7100000000000000000000000000000000000000000000000000000000600052603260045260246000fd5b6020026020010151612ad9565b80806128f590613d00565b9150506126ca565b507faf22aa55528a5384993a5903832252d32d097f04e58d7929ef5128fe8158556a814260405161292f9291906136cf565b60405180910390a150565b7f76dfba581cd3b5e02cf3469ec59636d3b2bc677066188c2346f32f81a15971006001600082815260200190815260200160002060003373ffffffffffffffffffffffffffffffffffffffff1673ffffffffffffffffffffffffffffffffffffffff16815260200190815260200160002060009054906101000a900460ff166129f8576040517f08c379a00000000000000000000000000000000000000000000000000000000081526004016129ef90613932565b60405180910390fd5b60006001600085815260200190815260200160002060008473ffffffffffffffffffffffffffffffffffffffff1673ffffffffffffffffffffffffffffffffffffffff16815260200190815260200160002060006101000a81548160ff0219169083151502179055508173ffffffffffffffffffffffffffffffffffffffff16837f69331970bf0fcdf0e1bcab5a5b121dddcd366a05701b071791a387a80fc918f460405160405180910390a3505050565b60016020528160005260406000206020528060005260406000206000915091509054906101000a900460ff1681565b600180600084815260200190815260200160002060008373ffffffffffffffffffffffffffffffffffffffff1673ffffffffffffffffffffffffffffffffffffffff16815260200190815260200160002060006101000a81548160ff0219169083151502179055508073ffffffffffffffffffffffffffffffffffffffff16827f28be2ad647d19c04889746a89a2c95468f8dcd453018d6d0f2411904e90dff1360405160405180910390a35050565b612b916116f7565b612bd0576040517f08c379a0000000000000000000000000000000000000000000000000000000008152600401612bc790613852565b60405180910390fd5b60008060006101000a81548160ff0219169083151502179055507f5db9ee0a495bf2e6ff9c91a7834c1ba4fdd244a5e8aa4e537bd38aeae4b073aa612c13612da0565b604051612c209190613648565b60405180910390a1565b6000806000905060005b600380549050811015612cf9578160038281548110612c7c577f4e487b7100000000000000000000000000000000000000000000000000000000600052603260045260246000fd5b9060005260206000209060030201600201541115612ce65760038181548110612cce577f4e487b7100000000000000000000000000000000000000000000000000000000600052603260045260246000fd5b90600052602060002090600302016002015491508092505b8080612cf190613d00565b915050612c34565b505090565b612d066116f7565b15612d46576040517f08c379a0000000000000000000000000000000000000000000000000000000008152600401612d3d906138d2565b60405180910390fd5b60016000806101000a81548160ff0219169083151502179055507f62e78cea01bee320cd4e420270b5ea74000d11b0c9f74754ebdbfc544b05a258612d89612da0565b604051612d969190613648565b60405180910390a1565b600033905090565b828054612db490613c9d565b90600052602060002090601f016020900481019282612dd65760008555612e1d565b82601f10612def57805160ff1916838001178555612e1d565b82800160010185558215612e1d579182015b82811115612e1c578251825591602001919060010190612e01565b5b509050612e2a9190612e2e565b5090565b5b80821115612e47576000816000905550600101612e2f565b5090565b6000612e5e612e5984613a52565b613a2d565b90508083825260208201905082856020860282011115612e7d57600080fd5b60005b85811015612ead5781612e938882612f7b565b845260208401935060208301925050600181019050612e80565b5050509392505050565b6000612eca612ec584613a7e565b613a2d565b90508083825260208201905082856020860282011115612ee957600080fd5b60005b85811015612f3357813567ffffffffffffffff811115612f0b57600080fd5b808601612f188982612ff9565b85526020850194506020840193505050600181019050612eec565b5050509392505050565b6000612f50612f4b84613aaa565b613a2d565b905082815260208101848484011115612f6857600080fd5b612f73848285613c5b565b509392505050565b600081359050612f8a81614112565b92915050565b600082601f830112612fa157600080fd5b8135612fb1848260208601612e4b565b91505092915050565b600082601f830112612fcb57600080fd5b8135612fdb848260208601612eb7565b91505092915050565b600081359050612ff381614129565b92915050565b600082601f83011261300a57600080fd5b813561301a848260208601612f3d565b91505092915050565b60008135905061303281614140565b92915050565b60006020828403121561304a57600080fd5b600061305884828501612f7b565b91505092915050565b60006020828403121561307357600080fd5b600082013567ffffffffffffffff81111561308d57600080fd5b61309984828501612f90565b91505092915050565b600080604083850312156130b557600080fd5b600083013567ffffffffffffffff8111156130cf57600080fd5b6130db85828601612fba565b925050602083013567ffffffffffffffff8111156130f857600080fd5b61310485828601612f90565b9150509250929050565b6000806040838503121561312157600080fd5b600061312f85828601612fe4565b925050602061314085828601612f7b565b9150509250929050565b60006020828403121561315c57600080fd5b600082013567ffffffffffffffff81111561317657600080fd5b61318284828501612ff9565b91505092915050565b60006020828403121561319d57600080fd5b60006131ab84828501613023565b91505092915050565b60006131c083836131f8565b60208301905092915050565b60006131d88383613365565b905092915050565b60006131ec838361362a565b60208301905092915050565b61320181613c09565b82525050565b61321081613c09565b82525050565b600061322182613b0b565b61322b8185613b5e565b935061323683613adb565b8060005b8381101561326757815161324e88826131b4565b975061325983613b37565b92505060018101905061323a565b5085935050505092915050565b600061327f82613b16565b6132898185613b6f565b93508360208202850161329b85613aeb565b8060005b858110156132d757848403895281516132b885826131cc565b94506132c383613b44565b925060208a0199505060018101905061329f565b50829750879550505050505092915050565b60006132f482613b21565b6132fe8185613b80565b935061330983613afb565b8060005b8381101561333a57815161332188826131e0565b975061332c83613b51565b92505060018101905061330d565b5085935050505092915050565b61335081613c1b565b82525050565b61335f81613c27565b82525050565b600061337082613b2c565b61337a8185613b91565b935061338a818560208601613c6a565b61339381613dd6565b840191505092915050565b60006133a982613b2c565b6133b38185613ba2565b93506133c3818560208601613c6a565b6133cc81613dd6565b840191505092915050565b60006133e4601483613ba2565b91506133ef82613de7565b602082019050919050565b6000613407602483613ba2565b915061341282613e10565b604082019050919050565b600061342a600783613ba2565b915061343582613e5f565b602082019050919050565b600061344d600e83613ba2565b915061345882613e88565b602082019050919050565b6000613470602783613ba2565b915061347b82613eb1565b604082019050919050565b6000613493601083613ba2565b915061349e82613f00565b602082019050919050565b60006134b6601f83613ba2565b91506134c182613f29565b602082019050919050565b60006134d9601983613ba2565b91506134e482613f52565b602082019050919050565b60006134fc600e83613ba2565b915061350782613f7b565b602082019050919050565b600061351f601a83613ba2565b915061352a82613fa4565b602082019050919050565b6000613542601a83613ba2565b915061354d82613fcd565b602082019050919050565b6000613565602583613ba2565b915061357082613ff6565b604082019050919050565b6000613588600c83613ba2565b915061359382614045565b602082019050919050565b60006135ab601c83613ba2565b91506135b68261406e565b602082019050919050565b60006135ce601a83613ba2565b91506135d982614097565b602082019050919050565b60006135f1600783613ba2565b91506135fc826140c0565b602082019050919050565b6000613614601a83613ba2565b915061361f826140e9565b602082019050919050565b61363381613c51565b82525050565b61364281613c51565b82525050565b600060208201905061365d6000830184613207565b92915050565b60006040820190506136786000830185613207565b6136856020830184613639565b9392505050565b600060608201905081810360008301526136a68185613216565b905081810360208301526136b98161341d565b90506136c86040830184613639565b9392505050565b600060608201905081810360008301526136e98185613216565b905081810360208301526136fc8161357b565b905061370b6040830184613639565b9392505050565b6000606082019050818103600083015261372c8185613216565b9050818103602083015261373f816135e4565b905061374e6040830184613639565b9392505050565b6000606082019050818103600083015261376f8186613274565b905081810360208301526137838185613216565b9050818103604083015261379781846132e9565b9050949350505050565b60006020820190506137b66000830184613347565b92915050565b60006040820190506137d16000830185613347565b6137de6020830184613347565b9392505050565b60006020820190506137fa6000830184613356565b92915050565b6000602082019050818103600083015261381a818461339e565b905092915050565b6000604082019050818103600083015261383c818561339e565b905061384b6020830184613207565b9392505050565b6000602082019050818103600083015261386b816133d7565b9050919050565b6000602082019050818103600083015261388b816133fa565b9050919050565b600060208201905081810360008301526138ab81613440565b9050919050565b600060208201905081810360008301526138cb81613463565b9050919050565b600060208201905081810360008301526138eb81613486565b9050919050565b6000602082019050818103600083015261390b816134a9565b9050919050565b6000602082019050818103600083015261392b816134cc565b9050919050565b6000602082019050818103600083015261394b816134ef565b9050919050565b6000602082019050818103600083015261396b81613512565b9050919050565b6000602082019050818103600083015261398b81613535565b9050919050565b600060208201905081810360008301526139ab81613558565b9050919050565b600060208201905081810360008301526139cb8161359e565b9050919050565b600060208201905081810360008301526139eb816135c1565b9050919050565b60006020820190508181036000830152613a0b81613607565b9050919050565b6000602082019050613a276000830184613639565b92915050565b6000613a37613a48565b9050613a438282613ccf565b919050565b6000604051905090565b600067ffffffffffffffff821115613a6d57613a6c613da7565b5b602082029050602081019050919050565b600067ffffffffffffffff821115613a9957613a98613da7565b5b602082029050602081019050919050565b600067ffffffffffffffff821115613ac557613ac4613da7565b5b613ace82613dd6565b9050602081019050919050565b6000819050602082019050919050565b6000819050602082019050919050565b6000819050602082019050919050565b600081519050919050565b600081519050919050565b600081519050919050565b600081519050919050565b6000602082019050919050565b6000602082019050919050565b6000602082019050919050565b600082825260208201905092915050565b600082825260208201905092915050565b600082825260208201905092915050565b600082825260208201905092915050565b600082825260208201905092915050565b6000613bbe82613c51565b9150613bc983613c51565b9250827fffffffffffffffffffffffffffffffffffffffffffffffffffffffffffffffff03821115613bfe57613bfd613d49565b5b828201905092915050565b6000613c1482613c31565b9050919050565b60008115159050919050565b6000819050919050565b600073ffffffffffffffffffffffffffffffffffffffff82169050919050565b6000819050919050565b82818337600083830152505050565b60005b83811015613c88578082015181840152602081019050613c6d565b83811115613c97576000848401525b50505050565b60006002820490506001821680613cb557607f821691505b60208210811415613cc957613cc8613d78565b5b50919050565b613cd882613dd6565b810181811067ffffffffffffffff82111715613cf757613cf6613da7565b5b80604052505050565b6000613d0b82613c51565b91507fffffffffffffffffffffffffffffffffffffffffffffffffffffffffffffffff821415613d3e57613d3d613d49565b5b600182019050919050565b7f4e487b7100000000000000000000000000000000000000000000000000000000600052601160045260246000fd5b7f4e487b7100000000000000000000000000000000000000000000000000000000600052602260045260246000fd5b7f4e487b7100000000000000000000000000000000000000000000000000000000600052604160045260246000fd5b6000601f19601f8301169050919050565b7f5061757361626c653a206e6f7420706175736564000000000000000000000000600082015250565b7f4f6e6c7920617661696c61626c6520616674657220656c656374696f6e20737460008201527f6172747300000000000000000000000000000000000000000000000000000000602082015250565b7f5445414348455200000000000000000000000000000000000000000000000000600082015250565b7f416c726561647920766f7465642e000000000000000000000000000000000000600082015250565b7f506c65617365207265676973746572206174206c65617374206f6e6520636f6e60008201527f74657374616e7400000000000000000000000000000000000000000000000000602082015250565b7f5061757361626c653a2070617573656400000000000000000000000000000000600082015250565b7f426f617264204d656d62657220616c7265616479207265676973746572656400600082015250565b7f4172726179206c656e67746873206d757374206d617463682100000000000000600082015250565b7f6e6f7420617574686f72697a6564000000000000000000000000000000000000600082015250565b7f436f6e74657374616e74206e6f74207265676973746572656421000000000000600082015250565b7f53747564656e7420616c72656164792072656769737465726564000000000000600082015250565b7f4e6f7420656c696769626c6520746f20766f74652c20706c656173652072656760008201527f6973746572000000000000000000000000000000000000000000000000000000602082015250565b7f424f415244204d454d4245520000000000000000000000000000000000000000600082015250565b7f456c656374696f6e2068617320616c7265616479207374617274656400000000600082015250565b7f5465616368657220616c72656164792072656769737465726564000000000000600082015250565b7f53545544454e5400000000000000000000000000000000000000000000000000600082015250565b7f5761697420666f7220656c656374696f6e20746f207374617274000000000000600082015250565b61411b81613c09565b811461412657600080fd5b50565b61413281613c27565b811461413d57600080fd5b50565b61414981613c51565b811461415457600080fd5b5056fea26469706673582212202247cb1a55b3e873ebb46f4fda979f76314c4e0ab2ea37066e0bebfde9eaa95c64736f6c63430008040033",
  "linkReferences": {},
  "deployedLinkReferences": {}
}